{
  "address": "0x8a5859aB584f9b6F64769550862c58B9C5761C25",
  "abi": [
    {
      "inputs": [
        {
          "internalType": "address",
          "name": "_treasury",
          "type": "address"
        }
      ],
      "stateMutability": "nonpayable",
      "type": "constructor"
    },
    {
      "inputs": [
        {
          "internalType": "address",
          "name": "target",
          "type": "address"
        }
      ],
      "name": "AddressEmptyCode",
      "type": "error"
    },
    {
      "inputs": [
        {
          "internalType": "address",
          "name": "account",
          "type": "address"
        }
      ],
      "name": "AddressInsufficientBalance",
      "type": "error"
    },
    {
      "inputs": [],
      "name": "FailedInnerCall",
      "type": "error"
    },
    {
      "inputs": [
        {
          "internalType": "address",
          "name": "owner",
          "type": "address"
        }
      ],
      "name": "OwnableInvalidOwner",
      "type": "error"
    },
    {
      "inputs": [
        {
          "internalType": "address",
          "name": "account",
          "type": "address"
        }
      ],
      "name": "OwnableUnauthorizedAccount",
      "type": "error"
    },
    {
      "inputs": [],
      "name": "ReentrancyGuardReentrantCall",
      "type": "error"
    },
    {
      "inputs": [
        {
          "internalType": "address",
          "name": "token",
          "type": "address"
        }
      ],
      "name": "SafeERC20FailedOperation",
      "type": "error"
    },
    {
      "anonymous": false,
      "inputs": [
        {
          "indexed": true,
          "internalType": "uint256",
          "name": "changeId",
          "type": "uint256"
        }
      ],
      "name": "ChangeCancelled",
      "type": "event"
    },
    {
      "anonymous": false,
      "inputs": [
        {
          "indexed": true,
          "internalType": "uint256",
          "name": "changeId",
          "type": "uint256"
        },
        {
          "indexed": false,
          "internalType": "bytes32",
          "name": "changeType",
          "type": "bytes32"
        }
      ],
      "name": "ChangeExecuted",
      "type": "event"
    },
    {
      "anonymous": false,
      "inputs": [
        {
          "indexed": true,
          "internalType": "uint256",
          "name": "changeId",
          "type": "uint256"
        },
        {
          "indexed": false,
          "internalType": "bytes32",
          "name": "changeType",
          "type": "bytes32"
        },
        {
          "indexed": false,
          "internalType": "uint256",
          "name": "executeAfter",
          "type": "uint256"
        }
      ],
      "name": "ChangeQueued",
      "type": "event"
    },
    {
      "anonymous": false,
      "inputs": [
        {
          "indexed": false,
          "internalType": "uint256",
          "name": "platformFeeBps",
          "type": "uint256"
        },
        {
          "indexed": false,
          "internalType": "uint256",
          "name": "organizerFeeBps",
          "type": "uint256"
        }
      ],
      "name": "FeesUpdated",
      "type": "event"
    },
    {
      "anonymous": false,
      "inputs": [
        {
          "indexed": false,
          "internalType": "address",
          "name": "organizer",
          "type": "address"
        },
        {
          "indexed": false,
          "internalType": "bool",
          "name": "allowed",
          "type": "bool"
        }
      ],
      "name": "OrganizerAllowed",
      "type": "event"
    },
    {
      "anonymous": false,
      "inputs": [
        {
          "indexed": false,
          "internalType": "address",
          "name": "organizer",
          "type": "address"
        },
        {
          "indexed": false,
          "internalType": "address",
          "name": "token",
          "type": "address"
        },
        {
          "indexed": false,
          "internalType": "uint256",
          "name": "stake",
          "type": "uint256"
        }
      ],
      "name": "OrganizerRegistered",
      "type": "event"
    },
    {
      "anonymous": false,
      "inputs": [
        {
          "indexed": false,
          "internalType": "address",
          "name": "organizer",
          "type": "address"
        },
        {
          "indexed": false,
          "internalType": "address",
          "name": "token",
          "type": "address"
        },
        {
          "indexed": false,
          "internalType": "uint256",
          "name": "amount",
          "type": "uint256"
        },
        {
          "indexed": false,
          "internalType": "string",
          "name": "reason",
          "type": "string"
        }
      ],
      "name": "OrganizerSlashed",
      "type": "event"
    },
    {
      "anonymous": false,
      "inputs": [
        {
          "indexed": false,
          "internalType": "address",
          "name": "organizer",
          "type": "address"
        },
        {
          "indexed": false,
          "internalType": "address",
          "name": "token",
          "type": "address"
        },
        {
          "indexed": false,
          "internalType": "uint256",
          "name": "stakeReturned",
          "type": "uint256"
        }
      ],
      "name": "OrganizerUnregistered",
      "type": "event"
    },
    {
      "anonymous": false,
      "inputs": [
        {
          "indexed": true,
          "internalType": "address",
          "name": "previousOwner",
          "type": "address"
        },
        {
          "indexed": true,
          "internalType": "address",
          "name": "newOwner",
          "type": "address"
        }
      ],
      "name": "OwnershipTransferred",
      "type": "event"
    },
    {
      "anonymous": false,
      "inputs": [
        {
          "indexed": true,
          "internalType": "uint256",
          "name": "raffleId",
          "type": "uint256"
        },
        {
          "indexed": false,
          "internalType": "string",
          "name": "reason",
          "type": "string"
        }
      ],
      "name": "RaffleCancelled",
      "type": "event"
    },
    {
      "anonymous": false,
      "inputs": [
        {
          "indexed": true,
          "internalType": "uint256",
          "name": "raffleId",
          "type": "uint256"
        },
        {
          "indexed": true,
          "internalType": "address",
          "name": "organizer",
          "type": "address"
        },
        {
          "indexed": false,
          "internalType": "address",
          "name": "paymentToken",
          "type": "address"
        },
        {
          "indexed": false,
          "internalType": "uint256",
          "name": "ticketPrice",
          "type": "uint256"
        },
        {
          "indexed": false,
          "internalType": "uint256",
          "name": "maxTickets",
          "type": "uint256"
        },
        {
          "indexed": false,
          "internalType": "uint256",
          "name": "endTime",
          "type": "uint256"
        }
      ],
      "name": "RaffleCreated",
      "type": "event"
    },
    {
      "anonymous": false,
      "inputs": [
        {
          "indexed": true,
          "internalType": "uint256",
          "name": "raffleId",
          "type": "uint256"
        },
        {
          "indexed": true,
          "internalType": "address",
          "name": "participant",
          "type": "address"
        },
        {
          "indexed": false,
          "internalType": "uint256",
          "name": "ticketCount",
          "type": "uint256"
        },
        {
          "indexed": false,
          "internalType": "uint256",
          "name": "amountPaid",
          "type": "uint256"
        }
      ],
      "name": "TicketPurchased",
      "type": "event"
    },
    {
      "anonymous": false,
      "inputs": [
        {
          "indexed": false,
          "internalType": "address",
          "name": "token",
          "type": "address"
        },
        {
          "indexed": false,
          "internalType": "bool",
          "name": "allowed",
          "type": "bool"
        },
        {
          "indexed": false,
          "internalType": "uint8",
          "name": "decimals",
          "type": "uint8"
        }
      ],
      "name": "TokenAllowed",
      "type": "event"
    },
    {
      "anonymous": false,
      "inputs": [
        {
          "indexed": false,
          "internalType": "address",
          "name": "newTreasury",
          "type": "address"
        }
      ],
      "name": "TreasuryUpdated",
      "type": "event"
    },
    {
      "anonymous": false,
      "inputs": [
        {
          "indexed": true,
          "internalType": "uint256",
          "name": "raffleId",
          "type": "uint256"
        },
        {
          "indexed": true,
          "internalType": "address",
          "name": "winner",
          "type": "address"
        },
        {
          "indexed": false,
          "internalType": "uint256",
          "name": "winningTicket",
          "type": "uint256"
        },
        {
          "indexed": false,
          "internalType": "bytes32",
          "name": "vrfHash",
          "type": "bytes32"
        }
      ],
      "name": "WinnerSelected",
      "type": "event"
    },
    {
      "inputs": [],
      "name": "MAX_TOTAL_FEE_BPS",
      "outputs": [
        {
          "internalType": "uint256",
          "name": "",
          "type": "uint256"
        }
      ],
      "stateMutability": "view",
      "type": "function"
    },
    {
      "inputs": [],
      "name": "ORGANIZER_STAKE",
      "outputs": [
        {
          "internalType": "uint256",
          "name": "",
          "type": "uint256"
        }
      ],
      "stateMutability": "view",
      "type": "function"
    },
    {
      "inputs": [],
      "name": "ORGANIZER_STAKE_18",
      "outputs": [
        {
          "internalType": "uint256",
          "name": "",
          "type": "uint256"
        }
      ],
      "stateMutability": "view",
      "type": "function"
    },
    {
      "inputs": [],
      "name": "TIMELOCK_DELAY",
      "outputs": [
        {
          "internalType": "uint256",
          "name": "",
          "type": "uint256"
        }
      ],
      "stateMutability": "view",
      "type": "function"
    },
    {
      "inputs": [],
      "name": "agentPaused",
      "outputs": [
        {
          "internalType": "bool",
          "name": "",
          "type": "bool"
        }
      ],
      "stateMutability": "view",
      "type": "function"
    },
    {
      "inputs": [
        {
          "internalType": "address",
          "name": "",
          "type": "address"
        }
      ],
      "name": "allowedOrganizers",
      "outputs": [
        {
          "internalType": "bool",
          "name": "",
          "type": "bool"
        }
      ],
      "stateMutability": "view",
      "type": "function"
    },
    {
      "inputs": [
        {
          "internalType": "address",
          "name": "",
          "type": "address"
        }
      ],
      "name": "allowedTokens",
      "outputs": [
        {
          "internalType": "bool",
          "name": "",
          "type": "bool"
        }
      ],
      "stateMutability": "view",
      "type": "function"
    },
    {
      "inputs": [
        {
          "internalType": "uint256",
          "name": "_changeId",
          "type": "uint256"
        }
      ],
      "name": "cancelChange",
      "outputs": [],
      "stateMutability": "nonpayable",
      "type": "function"
    },
    {
      "inputs": [
        {
          "internalType": "uint256",
          "name": "_raffleId",
          "type": "uint256"
        },
        {
          "internalType": "string",
          "name": "_reason",
          "type": "string"
        }
      ],
      "name": "cancelRaffle",
      "outputs": [],
      "stateMutability": "nonpayable",
      "type": "function"
    },
    {
      "inputs": [
        {
          "internalType": "address",
          "name": "_paymentToken",
          "type": "address"
        },
        {
          "internalType": "uint256",
          "name": "_ticketPrice",
          "type": "uint256"
        },
        {
          "internalType": "uint256",
          "name": "_maxTickets",
          "type": "uint256"
        },
        {
          "internalType": "uint256",
          "name": "_duration",
          "type": "uint256"
        }
      ],
      "name": "createRaffle",
      "outputs": [
        {
          "internalType": "uint256",
          "name": "",
          "type": "uint256"
        }
      ],
      "stateMutability": "nonpayable",
      "type": "function"
    },
    {
      "inputs": [
        {
          "internalType": "uint256",
          "name": "_raffleId",
          "type": "uint256"
        },
        {
          "internalType": "uint256",
          "name": "_randomNumber",
          "type": "uint256"
        },
        {
          "internalType": "bytes32",
          "name": "_vrfHash",
          "type": "bytes32"
        }
      ],
      "name": "drawWinner",
      "outputs": [],
      "stateMutability": "nonpayable",
      "type": "function"
    },
    {
      "inputs": [
        {
          "internalType": "uint256",
          "name": "_raffleId",
          "type": "uint256"
        }
      ],
      "name": "emergencyRefund",
      "outputs": [],
      "stateMutability": "nonpayable",
      "type": "function"
    },
    {
      "inputs": [
        {
          "internalType": "address",
          "name": "_token",
          "type": "address"
        },
        {
          "internalType": "uint256",
          "name": "_amount",
          "type": "uint256"
        }
      ],
      "name": "emergencyWithdraw",
      "outputs": [],
      "stateMutability": "nonpayable",
      "type": "function"
    },
    {
      "inputs": [
        {
          "internalType": "uint256",
          "name": "_changeId",
          "type": "uint256"
        }
      ],
      "name": "executeChange",
      "outputs": [],
      "stateMutability": "nonpayable",
      "type": "function"
    },
    {
      "inputs": [
        {
          "internalType": "uint256",
          "name": "_raffleId",
          "type": "uint256"
        }
      ],
      "name": "forceExpireRaffle",
      "outputs": [],
      "stateMutability": "nonpayable",
      "type": "function"
    },
    {
      "inputs": [],
      "name": "getActiveRaffles",
      "outputs": [
        {
          "internalType": "uint256[]",
          "name": "",
          "type": "uint256[]"
        }
      ],
      "stateMutability": "view",
      "type": "function"
    },
    {
      "inputs": [
        {
          "internalType": "uint256",
          "name": "_raffleId",
          "type": "uint256"
        },
        {
          "internalType": "address",
          "name": "_participant",
          "type": "address"
        }
      ],
      "name": "getParticipantTickets",
      "outputs": [
        {
          "internalType": "uint256",
          "name": "",
          "type": "uint256"
        }
      ],
      "stateMutability": "view",
      "type": "function"
    },
    {
      "inputs": [
        {
          "internalType": "uint256",
          "name": "_raffleId",
          "type": "uint256"
        }
      ],
      "name": "getRaffle",
      "outputs": [
        {
          "components": [
            {
              "internalType": "address",
              "name": "organizer",
              "type": "address"
            },
            {
              "internalType": "address",
              "name": "paymentToken",
              "type": "address"
            },
            {
              "internalType": "uint256",
              "name": "ticketPrice",
              "type": "uint256"
            },
            {
              "internalType": "uint256",
              "name": "maxTickets",
              "type": "uint256"
            },
            {
              "internalType": "uint256",
              "name": "totalTickets",
              "type": "uint256"
            },
            {
              "internalType": "uint256",
              "name": "startTime",
              "type": "uint256"
            },
            {
              "internalType": "uint256",
              "name": "endTime",
              "type": "uint256"
            },
            {
              "internalType": "bool",
              "name": "isActive",
              "type": "bool"
            },
            {
              "internalType": "bool",
              "name": "isDrawn",
              "type": "bool"
            },
            {
              "internalType": "bool",
              "name": "isCancelled",
              "type": "bool"
            },
            {
              "internalType": "address",
              "name": "winner",
              "type": "address"
            },
            {
              "internalType": "uint256",
              "name": "winningTicket",
              "type": "uint256"
            },
            {
              "internalType": "uint256",
              "name": "totalPrize",
              "type": "uint256"
            }
          ],
          "internalType": "struct AgentRaffleV3.Raffle",
          "name": "",
          "type": "tuple"
        }
      ],
      "stateMutability": "view",
      "type": "function"
    },
    {
      "inputs": [
        {
          "internalType": "address",
          "name": "_organizer",
          "type": "address"
        }
      ],
      "name": "getRafflesByOrganizer",
      "outputs": [
        {
          "internalType": "uint256[]",
          "name": "",
          "type": "uint256[]"
        }
      ],
      "stateMutability": "view",
      "type": "function"
    },
    {
      "inputs": [
        {
          "internalType": "address",
          "name": "_token",
          "type": "address"
        }
      ],
      "name": "getStakeAmount",
      "outputs": [
        {
          "internalType": "uint256",
          "name": "",
          "type": "uint256"
        }
      ],
      "stateMutability": "view",
      "type": "function"
    },
    {
      "inputs": [
        {
          "internalType": "uint256",
          "name": "_raffleId",
          "type": "uint256"
        },
        {
          "internalType": "uint256",
          "name": "_ticketNumber",
          "type": "uint256"
        }
      ],
      "name": "getTicketOwner",
      "outputs": [
        {
          "internalType": "address",
          "name": "",
          "type": "address"
        }
      ],
      "stateMutability": "view",
      "type": "function"
    },
    {
      "inputs": [
        {
          "internalType": "uint256",
          "name": "_raffleId",
          "type": "uint256"
        }
      ],
      "name": "getVRFRequestStatus",
      "outputs": [
        {
          "internalType": "bytes32",
          "name": "requestId",
          "type": "bytes32"
        },
        {
          "internalType": "bool",
          "name": "requested",
          "type": "bool"
        }
      ],
      "stateMutability": "view",
      "type": "function"
    },
    {
      "inputs": [],
      "name": "organizerFeeBps",
      "outputs": [
        {
          "internalType": "uint256",
          "name": "",
          "type": "uint256"
        }
      ],
      "stateMutability": "view",
      "type": "function"
    },
    {
      "inputs": [
        {
          "internalType": "address",
          "name": "",
          "type": "address"
        },
        {
          "internalType": "address",
          "name": "",
          "type": "address"
        }
      ],
      "name": "organizerStakes",
      "outputs": [
        {
          "internalType": "uint256",
          "name": "",
          "type": "uint256"
        }
      ],
      "stateMutability": "view",
      "type": "function"
    },
    {
      "inputs": [],
      "name": "owner",
      "outputs": [
        {
          "internalType": "address",
          "name": "",
          "type": "address"
        }
      ],
      "stateMutability": "view",
      "type": "function"
    },
    {
      "inputs": [],
      "name": "pendingChangeCount",
      "outputs": [
        {
          "internalType": "uint256",
          "name": "",
          "type": "uint256"
        }
      ],
      "stateMutability": "view",
      "type": "function"
    },
    {
      "inputs": [
        {
          "internalType": "uint256",
          "name": "",
          "type": "uint256"
        }
      ],
      "name": "pendingChanges",
      "outputs": [
        {
          "internalType": "bytes32",
          "name": "changeType",
          "type": "bytes32"
        },
        {
          "internalType": "bytes",
          "name": "data",
          "type": "bytes"
        },
        {
          "internalType": "uint256",
          "name": "executeAfter",
          "type": "uint256"
        },
        {
          "internalType": "bool",
          "name": "exists",
          "type": "bool"
        }
      ],
      "stateMutability": "view",
      "type": "function"
    },
    {
      "inputs": [],
      "name": "platformFeeBps",
      "outputs": [
        {
          "internalType": "uint256",
          "name": "",
          "type": "uint256"
        }
      ],
      "stateMutability": "view",
      "type": "function"
    },
    {
      "inputs": [
        {
          "internalType": "uint256",
          "name": "_raffleId",
          "type": "uint256"
        },
        {
          "internalType": "uint256",
          "name": "_ticketCount",
          "type": "uint256"
        }
      ],
      "name": "purchaseTickets",
      "outputs": [],
      "stateMutability": "nonpayable",
      "type": "function"
    },
    {
      "inputs": [
        {
          "internalType": "uint256",
          "name": "_platformFeeBps",
          "type": "uint256"
        },
        {
          "internalType": "uint256",
          "name": "_organizerFeeBps",
          "type": "uint256"
        }
      ],
      "name": "queueSetFees",
      "outputs": [],
      "stateMutability": "nonpayable",
      "type": "function"
    },
    {
      "inputs": [
        {
          "internalType": "address",
          "name": "_treasury",
          "type": "address"
        }
      ],
      "name": "queueSetTreasury",
      "outputs": [],
      "stateMutability": "nonpayable",
      "type": "function"
    },
    {
      "inputs": [],
      "name": "raffleCounter",
      "outputs": [
        {
          "internalType": "uint256",
          "name": "",
          "type": "uint256"
        }
      ],
      "stateMutability": "view",
      "type": "function"
    },
    {
      "inputs": [
        {
          "internalType": "address",
          "name": "_token",
          "type": "address"
        }
      ],
      "name": "registerAsOrganizer",
      "outputs": [],
      "stateMutability": "nonpayable",
      "type": "function"
    },
    {
      "inputs": [],
      "name": "renounceOwnership",
      "outputs": [],
      "stateMutability": "nonpayable",
      "type": "function"
    },
    {
      "inputs": [
        {
          "internalType": "bool",
          "name": "_paused",
          "type": "bool"
        }
      ],
      "name": "setAgentPaused",
      "outputs": [],
      "stateMutability": "nonpayable",
      "type": "function"
    },
    {
      "inputs": [
        {
          "internalType": "address",
          "name": "_organizer",
          "type": "address"
        },
        {
          "internalType": "bool",
          "name": "_allowed",
          "type": "bool"
        }
      ],
      "name": "setAllowedOrganizer",
      "outputs": [],
      "stateMutability": "nonpayable",
      "type": "function"
    },
    {
      "inputs": [
        {
          "internalType": "address",
          "name": "_token",
          "type": "address"
        },
        {
          "internalType": "bool",
          "name": "_allowed",
          "type": "bool"
        },
        {
          "internalType": "uint8",
          "name": "_decimals",
          "type": "uint8"
        }
      ],
      "name": "setAllowedToken",
      "outputs": [],
      "stateMutability": "nonpayable",
      "type": "function"
    },
    {
      "inputs": [
        {
          "internalType": "address",
          "name": "_organizer",
          "type": "address"
        },
        {
          "internalType": "address",
          "name": "_token",
          "type": "address"
        },
        {
          "internalType": "string",
          "name": "_reason",
          "type": "string"
        }
      ],
      "name": "slashOrganizer",
      "outputs": [],
      "stateMutability": "nonpayable",
      "type": "function"
    },
    {
      "inputs": [
        {
          "internalType": "address",
          "name": "",
          "type": "address"
        }
      ],
      "name": "tokenDecimals",
      "outputs": [
        {
          "internalType": "uint8",
          "name": "",
          "type": "uint8"
        }
      ],
      "stateMutability": "view",
      "type": "function"
    },
    {
      "inputs": [
        {
          "internalType": "address",
          "name": "newOwner",
          "type": "address"
        }
      ],
      "name": "transferOwnership",
      "outputs": [],
      "stateMutability": "nonpayable",
      "type": "function"
    },
    {
      "inputs": [],
      "name": "treasury",
      "outputs": [
        {
          "internalType": "address",
          "name": "",
          "type": "address"
        }
      ],
      "stateMutability": "view",
      "type": "function"
    },
    {
      "inputs": [
        {
          "internalType": "address",
          "name": "_token",
          "type": "address"
        }
      ],
      "name": "unregisterAsOrganizer",
      "outputs": [],
      "stateMutability": "nonpayable",
      "type": "function"
    },
    {
      "inputs": [
        {
          "internalType": "uint256",
          "name": "",
          "type": "uint256"
        }
      ],
      "name": "vrfHashes",
      "outputs": [
        {
          "internalType": "bytes32",
          "name": "",
          "type": "bytes32"
        }
      ],
      "stateMutability": "view",
      "type": "function"
    }
  ],
  "transactionHash": "0xcc5a8dbd4d9b11f38de0a6edc21f46f0010576ea7e5ec80fa4bdfb856441532f",
  "args": [
    "0xaDA1E751F2BB9b245Ca59a381f92394591233D71"
  ],
  "numDeployments": 1,
  "solcInputHash": "701d037da72e27f7d6e7da346462386b",
  "bytecode": "0x608060405261012c60045560c860055534801561001b57600080fd5b5060405161380538038061380583398101604081905261003a9161014d565b338061006157604051631e4fbdf760e01b8152600060048201526024015b60405180910390fd5b61006a816100fd565b50600180556001600160a01b0381166100b85760405162461bcd60e51b815260206004820152601060248201526f496e76616c696420747265617375727960801b6044820152606401610058565b600380546001600160a01b0390921661010002610100600160a81b0319909216919091179055336000908152601060205260409020805460ff1916600117905561017d565b600080546001600160a01b038381166001600160a01b0319831681178455604051919092169283917f8be0079c531659141344cd1fd0a4f28419497f9722a3daafe3b4186f6b6457e09190a35050565b60006020828403121561015f57600080fd5b81516001600160a01b038116811461017657600080fd5b9392505050565b6136798061018c6000396000f3fe608060405234801561001057600080fd5b50600436106102695760003560e01c806370e5deb911610151578063dd3e8b5b116100c3578063ec64bfe611610087578063ec64bfe6146105a8578063f0f470cf146105f0578063f22f5cfb146105f9578063f2a50d5e14610608578063f2fde38b1461063e578063f4057c061461065157600080fd5b8063dd3e8b5b14610514578063e4dafec914610527578063e744092e14610547578063ea0dfc151461056a578063eb9be8981461057d57600080fd5b80638ee573ac116101155780638ee573ac1461047a57806395ccea67146104af5780639ce0ee71146104c2578063a220615d146104d5578063c2f306a5146104e8578063d96df944146104f157600080fd5b806370e5deb91461041b578063715018a61461042e5780637c75005b14610436578063833c15d4146104495780638da5cb5b1461046957600080fd5b80633dc70c16116101ea5780635b57a2ed116101ae5780635b57a2ed146103855780635ba1c1a9146103985780635f773d7f146103a25780635f9c264c146103cd57806361d027b3146103f05780636a0547231461040857600080fd5b80633dc70c161461033b578063431a9caa146103435780635264c72a1461034c578063574154231461035f5780635980e2e41461037257600080fd5b80631512def5116102315780631512def5146102e3578063196fe7b1146102f657806322dcd13e146103095780633a00adf6146103125780633d09980e1461033257600080fd5b806304c262331461026e5780630732581e1461028b5780630886e920146102a05780630ba0d3de146102b35780630c2eb403146102d0575b600080fd5b610278620f424081565b6040519081526020015b60405180910390f35b61029e610299366004612dc7565b610664565b005b61029e6102ae366004612e2c565b61076d565b6003546102c09060ff1681565b6040519015158152602001610282565b6102786102de366004612e2c565b61090c565b61029e6102f1366004612e49565b61093a565b61029e610304366004612e75565b610cd3565b61027860045481565b610325610320366004612e2c565b611031565b6040516102829190612e8e565b61027860055481565b61032561112c565b6102786103e881565b61027861035a366004612ed1565b611218565b61029e61036d366004612f0c565b6116c6565b61029e610380366004612f66565b611861565b61029e610393366004612e75565b611916565b6102786202a30081565b6103b56103b0366004612f9f565b6119d8565b6040516001600160a01b039091168152602001610282565b6102c06103db366004612e2c565b60106020526000908152604090205460ff1681565b6003546103b59061010090046001600160a01b031681565b61029e610416366004612e2c565b611a02565b61029e610429366004612e75565b611be6565b61029e611d10565b61029e610444366004612fc1565b611d24565b610278610457366004612e75565b600d6020526000908152604090205481565b6000546001600160a01b03166103b5565b61049d610488366004612e2c565b600f6020526000908152604090205460ff1681565b60405160ff9091168152602001610282565b61029e6104bd366004612fde565b611d3f565b61029e6104d0366004612e75565b611f52565b61029e6104e336600461300a565b612107565b61027860025481565b6105046104ff366004612e75565b6121f9565b604051610282949392919061307f565b61029e610522366004612f9f565b6122ae565b61053a610535366004612e75565b61244e565b60405161028291906130c8565b6102c0610555366004612e2c565b600e6020526000908152604090205460ff1681565b61029e610578366004612e2c565b61259c565b61027861058b3660046131a2565b601160209081526000928352604080842090915290825290205481565b6105db6105b6366004612e75565b6000908152600b6020908152604080832054600c90925290912054909160ff90911690565b60408051928352901515602083015201610282565b61027860065481565b610278670de0b6b3a764000081565b6102786106163660046131d0565b6000918252600a602090815260408084206001600160a01b0393909316845291905290205490565b61029e61064c366004612e2c565b612730565b61029e61065f366004612f9f565b61276b565b61066c612a72565b610674612a9f565b6001600160a01b03808516600090815260116020908152604080832093871683529290522054806106e05760405162461bcd60e51b815260206004820152601160248201527009cde40e6e8c2d6ca40e8de40e6d8c2e6d607b1b60448201526064015b60405180910390fd5b6001600160a01b038086166000908152601160209081526040808320888516808552925282209190915560035461071e926101009091041683612ac9565b7f21792ed6fb240ce1a5ff828b2a0d728111033edda0745ec45579b04fd578095a858583868660405161075595949392919061321e565b60405180910390a15061076760018055565b50505050565b610775612a9f565b6001600160a01b0381166000908152600e602052604090205460ff166107d15760405162461bcd60e51b8152602060048201526011602482015270151bdad95b881b9bdd08185b1b1bddd959607a1b60448201526064016106d7565b3360009081526011602090815260408083206001600160a01b0385168452909152902054156108425760405162461bcd60e51b815260206004820152601d60248201527f416c7265616479207374616b656420666f72207468697320746f6b656e00000060448201526064016106d7565b600061084d8261090c565b90506108646001600160a01b038316333084612b28565b3360008181526011602090815260408083206001600160a01b0387168452825280832085905592825260109052205460ff166108b557336000908152601060205260409020805460ff191660011790555b604080513381526001600160a01b03841660208201529081018290527ff65489eae4a30802a3cf24344080d0a6107b03280aea1e6d2fafbc6bbde6489b906060015b60405180910390a15061090960018055565b50565b6001600160a01b0381166000908152600f602052604081205460ff1661093381600a61335a565b9392505050565b610942612a9f565b6000838152600860205260409020600781015460ff166109985760405162461bcd60e51b8152602060048201526011602482015270526166666c65206e6f742061637469766560781b60448201526064016106d7565b6007810154610100900460ff16156109c25760405162461bcd60e51b81526004016106d790613366565b600781015462010000900460ff1615610a095760405162461bcd60e51b815260206004820152600960248201526810d85b98d95b1b195960ba1b60448201526064016106d7565b806006015442101580610a23575080600301548160040154145b610a5f5760405162461bcd60e51b815260206004820152600d60248201526c139bdd08195b991959081e595d609a1b60448201526064016106d7565b6000816004015411610aa55760405162461bcd60e51b815260206004820152600f60248201526e139bc81d1a58dad95d1cc81cdbdb19608a1b60448201526064016106d7565b80546001600160a01b0316331480610ac757506000546001600160a01b031633145b610b045760405162461bcd60e51b815260206004820152600e60248201526d139bdd08185d5d1a1bdc9a5e995960921b60448201526064016106d7565b6000816004015484610b1691906133a3565b600086815260096020818152604080842085855282528084205460078801805460088a0188905560ff1961ff001963010000006001600160a01b03909516949094029390931662ff0100600160b81b03199091161761010017821690558a8552600d8352818520899055600b8352818520899055600c90925283208054909116600117905560045490850154929350909161271091610bb4916133b7565b610bbe91906133ce565b905060006127106005548560090154610bd791906133b7565b610be191906133ce565b9050600081838660090154610bf691906133e2565b610c0091906133e2565b6003546001870154919250610c27916001600160a01b039081169161010090041685612ac9565b84546001860154610c45916001600160a01b03918216911684612ac9565b60078501546001860154610c6e916001600160a01b039182169163010000009091041683612ac9565b6007850154604080518681526020810189905263010000009092046001600160a01b0316918a917fcec104e43773c202b6b944c0212bd13bde1bd93f38f64a328817e187c821b37d910160405180910390a35050505050610cce60018055565b505050565b610cdb612a72565b6000818152600760205260409020600381015460ff16610d355760405162461bcd60e51b815260206004820152601560248201527410da185b99d948191bd95cc81b9bdd08195e1a5cdd605a1b60448201526064016106d7565b8060020154421015610d805760405162461bcd60e51b8152602060048201526014602482015273151a5b595b1bd8dac81b9bdd08195e1c1a5c995960621b60448201526064016106d7565b80547f6cf08a6638278151a8a24a4804b3c601d1e91ed677f754698f9bc41cae2055d401610e9b57600080826001018054610dba906133f5565b80601f0160208091040260200160405190810160405280929190818152602001828054610de6906133f5565b8015610e335780601f10610e0857610100808354040283529160200191610e33565b820191906000526020600020905b815481529060010190602001808311610e1657829003601f168201915b5050505050806020019051810190610e4b919061342f565b6004829055600581905560408051838152602081018390529294509092507f5c6323bf1c2d7aaea2c091a4751c1c87af7f2864650c336507a77d0557af37a1910160405180910390a15050610fc3565b80547f60907fa71b4340c9b1763617258148352562de4851591d02caa4b9967bd3a86b01610fc3576000816001018054610ed4906133f5565b80601f0160208091040260200160405190810160405280929190818152602001828054610f00906133f5565b8015610f4d5780601f10610f2257610100808354040283529160200191610f4d565b820191906000526020600020905b815481529060010190602001808311610f3057829003601f168201915b5050505050806020019051810190610f659190613453565b60038054610100600160a81b0319166101006001600160a01b038416908102919091179091556040519081529091507f7dae230f18360d76a040c81f050aa14eb9d6dc7901b20fc5d855e2a20fe814d19060200160405180910390a1505b600082815260076020526040812081815590610fe26001830182612d1b565b5060006002820155600301805460ff19169055805460405190815282907fa8212e189a3e603d1e984c2c65579e9aec36ce8105e11320eca93bc67c5ea65a906020015b60405180910390a25050565b60606000805b600254811015611078576000818152600860205260409020546001600160a01b03808616911603611070578161106c81613470565b9250505b600101611037565b5060008167ffffffffffffffff81111561109457611094613489565b6040519080825280602002602001820160405280156110bd578160200160208202803683370190505b5090506000805b600254811015611122576000818152600860205260409020546001600160a01b0380881691160361111a578083836110fb81613470565b94508151811061110d5761110d61349f565b6020026020010181815250505b6001016110c4565b5090949350505050565b60606000805b60025481101561116c5760008181526008602052604090206007015460ff1615611164578161116081613470565b9250505b600101611132565b5060008167ffffffffffffffff81111561118857611188613489565b6040519080825280602002602001820160405280156111b1578160200160208202803683370190505b5090506000805b60025481101561120f5760008181526008602052604090206007015460ff1615611207578083836111e881613470565b9450815181106111fa576111fa61349f565b6020026020010181815250505b6001016111b8565b50909392505050565b60035460009060ff16156112605760405162461bcd60e51b815260206004820152600f60248201526e1059d95b9d081a5cc81c185d5cd959608a1b60448201526064016106d7565b3360009081526010602052604090205460ff166112bf5760405162461bcd60e51b815260206004820152601860248201527f4e6f7420616e20616c6c6f776564206f7267616e697a6572000000000000000060448201526064016106d7565b6001600160a01b0385166000908152600e602052604090205460ff1661131b5760405162461bcd60e51b8152602060048201526011602482015270151bdad95b881b9bdd08185b1b1bddd959607a1b60448201526064016106d7565b3360009081526011602090815260408083206001600160a01b038916845290915290205461138b5760405162461bcd60e51b815260206004820152601e60248201527f4d757374207374616b6520696e207468697320746f6b656e206669727374000060448201526064016106d7565b600084116113cf5760405162461bcd60e51b815260206004820152601160248201527005072696365206d757374206265203e203607c1b60448201526064016106d7565b6000831161141f5760405162461bcd60e51b815260206004820152601760248201527f4d6178207469636b657473206d757374206265203e203000000000000000000060448201526064016106d7565b600082116114665760405162461bcd60e51b815260206004820152601460248201527304475726174696f6e206d757374206265203e20360641b60448201526064016106d7565b600280546000918261147783613470565b909155509050600061148984426134b5565b9050604051806101a00160405280336001600160a01b03168152602001886001600160a01b031681526020018781526020018681526020016000815260200142815260200182815260200160011515815260200160001515815260200160001515815260200160006001600160a01b031681526020016000815260200160008152506008600084815260200190815260200160002060008201518160000160006101000a8154816001600160a01b0302191690836001600160a01b0316021790555060208201518160010160006101000a8154816001600160a01b0302191690836001600160a01b0316021790555060408201518160020155606082015181600301556080820151816004015560a0820151816005015560c0820151816006015560e08201518160070160006101000a81548160ff0219169083151502179055506101008201518160070160016101000a81548160ff0219169083151502179055506101208201518160070160026101000a81548160ff0219169083151502179055506101408201518160070160036101000a8154816001600160a01b0302191690836001600160a01b0316021790555061016082015181600801556101808201518160090155905050336001600160a01b0316827f0f02bcb7d71760b8e13b55c22428b61f3bef745a6613a06a291608d77ca14190898989866040516116b494939291906001600160a01b0394909416845260208401929092526040830152606082015260800190565b60405180910390a35095945050505050565b60008381526008602052604090206007810154610100900460ff16156116fe5760405162461bcd60e51b81526004016106d790613366565b600781015462010000900460ff161561174d5760405162461bcd60e51b8152602060048201526011602482015270105b1c9958591e4818d85b98d95b1b1959607a1b60448201526064016106d7565b80546001600160a01b031633036117c1576004810154156117bc5760405162461bcd60e51b815260206004820152602360248201527f43616e6e6f742063616e63656c3a207469636b65747320616c726561647920736044820152621bdb1960ea1b60648201526084016106d7565b61180c565b6000546001600160a01b0316331461180c5760405162461bcd60e51b815260206004820152600e60248201526d139bdd08185d5d1a1bdc9a5e995960921b60448201526064016106d7565b60078101805462ff00ff19166201000017905560405184907f4b065d94bb5f805836b9aefd08a7b4388cfdd8d346a56ef0a4a547dbca8b8f1f9061185390869086906134c8565b60405180910390a250505050565b611869612a72565b6001600160a01b0382166118b35760405162461bcd60e51b815260206004820152601160248201527024b73b30b634b21037b933b0b734bd32b960791b60448201526064016106d7565b6001600160a01b038216600081815260106020908152604091829020805460ff19168515159081179091558251938452908301527f3526889267db1935400393fa34756d493c603492745018f142406a9473bd9bac910160405180910390a15050565b61191e612a72565b60008181526007602052604090206003015460ff166119775760405162461bcd60e51b815260206004820152601560248201527410da185b99d948191bd95cc81b9bdd08195e1a5cdd605a1b60448201526064016106d7565b6000818152600760205260408120818155906119966001830182612d1b565b506000600282018190556003909101805460ff1916905560405182917f5edd520c0103960fbe1e1fc55ae80c123b61704fa2429473cef253e3c90ae27e91a250565b60008281526009602090815260408083208484529091529020546001600160a01b03165b92915050565b611a0a612a9f565b3360009081526011602090815260408083206001600160a01b038516845290915290205480611a7b5760405162461bcd60e51b815260206004820152601760248201527f4e6f207374616b6520666f72207468697320746f6b656e00000000000000000060448201526064016106d7565b60005b600254811015611b6e57600081815260086020526040902080546001600160a01b031633148015611abe575060018101546001600160a01b038581169116145b8015611ace5750600781015460ff165b8015611ae457506007810154610100900460ff16155b8015611afb5750600781015462010000900460ff16155b15611b655760405162461bcd60e51b815260206004820152603460248201527f43616e6e6f7420756e726567697374657220776974682061637469766520726160448201527333333632b9903337b9103a3434b9903a37b5b2b760611b60648201526084016106d7565b50600101611a7e565b503360008181526011602090815260408083206001600160a01b0387168085529252822091909155611ba09183612ac9565b604080513381526001600160a01b03841660208201529081018290527fe8b12c518436b01b1dfb7e4badf5d335d7cbfb3daf571526869c4ccbd8794eae906060016108f7565b611bee612a9f565b6000818152600860205260409020600781015462010000900460ff16611c465760405162461bcd60e51b815260206004820152600d60248201526c139bdd0818d85b98d95b1b1959609a1b60448201526064016106d7565b6000828152600a6020908152604080832033845290915290205480611c9a5760405162461bcd60e51b815260206004820152600a6024820152694e6f207469636b65747360b01b60448201526064016106d7565b6000838152600a602090815260408083203384528252808320839055858352601290915281208054839290611cd09084906134b5565b90915550506002820154600090611ce89083906133b7565b6001840154909150611d04906001600160a01b03163383612ac9565b50505061090960018055565b611d18612a72565b611d226000612b61565b565b611d2c612a72565b6003805460ff1916911515919091179055565b611d47612a72565b611d4f612a9f565b6001600160a01b038216611d955760405162461bcd60e51b815260206004820152600d60248201526c24b73b30b634b2103a37b5b2b760991b60448201526064016106d7565b6000805b600254811015611e3657600081815260086020526040902060018101546001600160a01b038681169116148015611dda57506007810154610100900460ff16155b8015611dea575060008160040154115b15611e2d576000828152601260205260408120546004830154611e0d91906133e2565b9050808260020154611e1f91906133b7565b611e2990856134b5565b9350505b50600101611d99565b506040516370a0823160e01b81523060048201526000906001600160a01b038516906370a0823190602401602060405180830381865afa158015611e7e573d6000803e3d6000fd5b505050506040513d601f19601f82011682018060405250810190611ea291906134e4565b90506000828211611eb4576000611ebe565b611ebe83836133e2565b905080841115611f1c5760405162461bcd60e51b815260206004820152602360248201527f416d6f756e74206578636565647320776974686472617761626c652062616c616044820152626e636560e81b60648201526084016106d7565b611f42611f316000546001600160a01b031690565b6001600160a01b0387169086612ac9565b505050611f4e60018055565b5050565b60008181526008602052604090206007810154610100900460ff1615611f8a5760405162461bcd60e51b81526004016106d790613366565b600781015462010000900460ff1615611fd95760405162461bcd60e51b8152602060048201526011602482015270105b1c9958591e4818d85b98d95b1b1959607a1b60448201526064016106d7565b60008160040154116120245760405162461bcd60e51b8152602060048201526014602482015273139bc81d1a58dad95d1cc81d1bc81c99599d5b9960621b60448201526064016106d7565b60068101546120369062093a806134b5565b42101561207d5760405162461bcd60e51b815260206004820152601560248201527423b930b1b2903832b934b7b2103737ba1037bb32b960591b60448201526064016106d7565b60078101805462ff00ff19166201000017905560405182907f4b065d94bb5f805836b9aefd08a7b4388cfdd8d346a56ef0a4a547dbca8b8f1f90611025906020808252602c908201527f466f7263652d657870697265643a206e6f7420647261776e2077697468696e2060408201526b19dc9858d9481c195c9a5bd960a21b606082015260800190565b61210f612a72565b6001600160a01b0383166121555760405162461bcd60e51b815260206004820152600d60248201526c24b73b30b634b2103a37b5b2b760991b60448201526064016106d7565b6001600160a01b0383166000908152600e60205260409020805460ff191683158015919091179091556121a8576001600160a01b0383166000908152600f60205260409020805460ff191660ff83161790555b604080516001600160a01b0385168152831515602082015260ff83168183015290517f559cdd30e9a191e6efc2e2e4990619cb873d2de4460a51faed9e38703f525a849181900360600190a1505050565b6007602052600090815260409020805460018201805491929161221b906133f5565b80601f0160208091040260200160405190810160405280929190818152602001828054612247906133f5565b80156122945780601f1061226957610100808354040283529160200191612294565b820191906000526020600020905b81548152906001019060200180831161227757829003601f168201915b50505050600283015460039093015491929160ff16905084565b6122b6612a72565b6103e86122c382846134b5565b11156123075760405162461bcd60e51b815260206004820152601360248201527204665657320657863656564203130252063617606c1b60448201526064016106d7565b600680546000918261231883613470565b91905055905060405180608001604052807f930f7599c7d87eae575db5b7fb4c39fe2e16e1298808ab9670643be351dfaa2c8152602001848460405160200161236b929190918252602082015260400190565b60408051601f19818403018152919052815260200161238d6202a300426134b5565b815260016020918201819052600084815260078352604090208351815591830151908201906123bc908261354b565b50604082015160028201556060909101516003909101805460ff1916911515919091179055807fe61e87b49005c90ed58b9d98d0f1482fcbe12c829ab80259b67e6217119059e27f930f7599c7d87eae575db5b7fb4c39fe2e16e1298808ab9670643be351dfaa2c6124316202a300426134b5565b6040805192835260208301919091520160405180910390a2505050565b6124da604051806101a0016040528060006001600160a01b0316815260200160006001600160a01b03168152602001600081526020016000815260200160008152602001600081526020016000815260200160001515815260200160001515815260200160001515815260200160006001600160a01b0316815260200160008152602001600081525090565b5060009081526008602081815260409283902083516101a08101855281546001600160a01b03908116825260018301548116938201939093526002820154948101949094526003810154606085015260048101546080850152600581015460a0850152600681015460c0850152600781015460ff808216151560e0870152610100808304821615159087015262010000820416151561012086015263010000009004909116610140840152908101546101608301526009015461018082015290565b6125a4612a72565b6001600160a01b0381166125ed5760405162461bcd60e51b815260206004820152601060248201526f496e76616c696420747265617375727960801b60448201526064016106d7565b60068054600091826125fe83613470565b91905055905060405180608001604052807f9f6f8058e4bcbf364e89c9e8da7eb7cada9d21b7aea6e2fd355b4669842c579581526020018360405160200161265591906001600160a01b0391909116815260200190565b60408051601f1981840301815291905281526020016126776202a300426134b5565b815260016020918201819052600084815260078352604090208351815591830151908201906126a6908261354b565b50604082015160028201556060909101516003909101805460ff1916911515919091179055807fe61e87b49005c90ed58b9d98d0f1482fcbe12c829ab80259b67e6217119059e27f9f6f8058e4bcbf364e89c9e8da7eb7cada9d21b7aea6e2fd355b4669842c579561271b6202a300426134b5565b60408051928352602083019190915201611025565b612738612a72565b6001600160a01b03811661276257604051631e4fbdf760e01b8152600060048201526024016106d7565b61090981612b61565b612773612a9f565b6000828152600860205260409020600781015460ff166127c95760405162461bcd60e51b8152602060048201526011602482015270526166666c65206e6f742061637469766560781b60448201526064016106d7565b600781015462010000900460ff16156128175760405162461bcd60e51b815260206004820152601060248201526f149859999b194818d85b98d95b1b195960821b60448201526064016106d7565b806006015442106128595760405162461bcd60e51b815260206004820152600c60248201526b149859999b1948195b99195960a21b60448201526064016106d7565b600082116128a05760405162461bcd60e51b81526020600482015260146024820152734d75737420627579203e2030207469636b65747360601b60448201526064016106d7565b60648211156128ea5760405162461bcd60e51b815260206004820152601660248201527509ac2f04062606040e8d2c6d6cae8e640e0cae440e8f60531b60448201526064016106d7565b80600301548282600401546128ff91906134b5565b11156129435760405162461bcd60e51b815260206004820152601360248201527245786365656473206d6178207469636b65747360681b60448201526064016106d7565b600082826002015461295591906133b7565b600483015490915060005b848110156129b8576000868152600960205260408120339161298284866134b5565b8152602081019190915260400160002080546001600160a01b0319166001600160a01b0392909216919091179055600101612960565b50838360040160008282546129cd91906134b5565b92505081905550818360090160008282546129e891906134b5565b90915550506000858152600a6020908152604080832033845290915281208054869290612a169084906134b5565b90915550506040805185815260208101849052339187917fef266bb11bf4b58aa8562ab8c8746e3b84a521780a2c57ca09d87bae13f5eb09910160405180910390a36001830154611f42906001600160a01b0316333085612b28565b6000546001600160a01b03163314611d225760405163118cdaa760e01b81523360048201526024016106d7565b600260015403612ac257604051633ee5aeb560e01b815260040160405180910390fd5b6002600155565b6040516001600160a01b03838116602483015260448201839052610cce91859182169063a9059cbb906064015b604051602081830303815290604052915060e01b6020820180516001600160e01b038381831617835250505050612bb1565b6040516001600160a01b0384811660248301528381166044830152606482018390526107679186918216906323b872dd90608401612af6565b600080546001600160a01b038381166001600160a01b0319831681178455604051919092169283917f8be0079c531659141344cd1fd0a4f28419497f9722a3daafe3b4186f6b6457e09190a35050565b6000612bc66001600160a01b03841683612c14565b90508051600014158015612beb575080806020019051810190612be9919061360a565b155b15610cce57604051635274afe760e01b81526001600160a01b03841660048201526024016106d7565b60606109338383600084600080856001600160a01b03168486604051612c3a9190613627565b60006040518083038185875af1925050503d8060008114612c77576040519150601f19603f3d011682016040523d82523d6000602084013e612c7c565b606091505b5091509150612c8c868383612c96565b9695505050505050565b606082612cab57612ca682612cf2565b610933565b8151158015612cc257506001600160a01b0384163b155b15612ceb57604051639996b31560e01b81526001600160a01b03851660048201526024016106d7565b5080610933565b805115612d025780518082602001fd5b604051630a12f52160e11b815260040160405180910390fd5b508054612d27906133f5565b6000825580601f10612d37575050565b601f01602090049060005260206000209081019061090991905b80821115612d655760008155600101612d51565b5090565b6001600160a01b038116811461090957600080fd5b60008083601f840112612d9057600080fd5b50813567ffffffffffffffff811115612da857600080fd5b602083019150836020828501011115612dc057600080fd5b9250929050565b60008060008060608587031215612ddd57600080fd5b8435612de881612d69565b93506020850135612df881612d69565b9250604085013567ffffffffffffffff811115612e1457600080fd5b612e2087828801612d7e565b95989497509550505050565b600060208284031215612e3e57600080fd5b813561093381612d69565b600080600060608486031215612e5e57600080fd5b505081359360208301359350604090920135919050565b600060208284031215612e8757600080fd5b5035919050565b602080825282518282018190526000918401906040840190835b81811015612ec6578351835260209384019390920191600101612ea8565b509095945050505050565b60008060008060808587031215612ee757600080fd5b8435612ef281612d69565b966020860135965060408601359560600135945092505050565b600080600060408486031215612f2157600080fd5b83359250602084013567ffffffffffffffff811115612f3f57600080fd5b612f4b86828701612d7e565b9497909650939450505050565b801515811461090957600080fd5b60008060408385031215612f7957600080fd5b8235612f8481612d69565b91506020830135612f9481612f58565b809150509250929050565b60008060408385031215612fb257600080fd5b50508035926020909101359150565b600060208284031215612fd357600080fd5b813561093381612f58565b60008060408385031215612ff157600080fd5b8235612ffc81612d69565b946020939093013593505050565b60008060006060848603121561301f57600080fd5b833561302a81612d69565b9250602084013561303a81612f58565b9150604084013560ff8116811461305057600080fd5b809150509250925092565b60005b8381101561307657818101518382015260200161305e565b50506000910152565b84815260806020820152600084518060808401526130a48160a085016020890161305b565b604083019490945250901515606082015260a0601f909201601f1916010192915050565b81516001600160a01b031681526101a0810160208301516130f460208401826001600160a01b03169052565b5060408301516040830152606083015160608301526080830151608083015260a083015160a083015260c083015160c083015260e083015161313a60e084018215159052565b5061010083015161315061010084018215159052565b5061012083015161316661012084018215159052565b506101408301516131836101408401826001600160a01b03169052565b5061016083015161016083015261018083015161018083015292915050565b600080604083850312156131b557600080fd5b82356131c081612d69565b91506020830135612f9481612d69565b600080604083850312156131e357600080fd5b823591506020830135612f9481612d69565b81835281816020850137506000828201602090810191909152601f909101601f19169091010190565b6001600160a01b038681168252851660208201526040810184905260806060820181905260009061325290830184866131f5565b979650505050505050565b634e487b7160e01b600052601160045260246000fd5b6001815b60018411156132ae578085048111156132925761329261325d565b60018416156132a057908102905b60019390931c928002613277565b935093915050565b6000826132c5575060016119fc565b816132d2575060006119fc565b81600181146132e857600281146132f25761330e565b60019150506119fc565b60ff8411156133035761330361325d565b50506001821b6119fc565b5060208310610133831016604e8410600b8410161715613331575081810a6119fc565b61333e6000198484613273565b80600019048211156133525761335261325d565b029392505050565b600061093383836132b6565b6020808252600d908201526c20b63932b0b23c90323930bbb760991b604082015260600190565b634e487b7160e01b600052601260045260246000fd5b6000826133b2576133b261338d565b500690565b80820281158282048414176119fc576119fc61325d565b6000826133dd576133dd61338d565b500490565b818103818111156119fc576119fc61325d565b600181811c9082168061340957607f821691505b60208210810361342957634e487b7160e01b600052602260045260246000fd5b50919050565b6000806040838503121561344257600080fd5b505080516020909101519092909150565b60006020828403121561346557600080fd5b815161093381612d69565b6000600182016134825761348261325d565b5060010190565b634e487b7160e01b600052604160045260246000fd5b634e487b7160e01b600052603260045260246000fd5b808201808211156119fc576119fc61325d565b6020815260006134dc6020830184866131f5565b949350505050565b6000602082840312156134f657600080fd5b5051919050565b601f821115610cce57806000526020600020601f840160051c810160208510156135245750805b601f840160051c820191505b818110156135445760008155600101613530565b5050505050565b815167ffffffffffffffff81111561356557613565613489565b6135798161357384546133f5565b846134fd565b6020601f8211600181146135ad57600083156135955750848201515b600019600385901b1c1916600184901b178455613544565b600084815260208120601f198516915b828110156135dd57878501518255602094850194600190920191016135bd565b50848210156135fb5786840151600019600387901b60f8161c191681555b50505050600190811b01905550565b60006020828403121561361c57600080fd5b815161093381612f58565b6000825161363981846020870161305b565b919091019291505056fea2646970667358221220de2cf70b7b8d5c3065d4f320ec5bbdd8c0ef16f875cd5f8fb1fd90026bf4301864736f6c634300081e0033",
  "devdoc": {
    "errors": {
      "AddressEmptyCode(address)": [
        {
          "details": "There's no code at `target` (it is not a contract)."
        }
      ],
      "AddressInsufficientBalance(address)": [
        {
          "details": "The ETH balance of the account is not enough to perform the operation."
        }
      ],
      "FailedInnerCall()": [
        {
          "details": "A call to an address target failed. The target may have reverted."
        }
      ],
      "OwnableInvalidOwner(address)": [
        {
          "details": "The owner is not a valid owner account. (eg. `address(0)`)"
        }
      ],
      "OwnableUnauthorizedAccount(address)": [
        {
          "details": "The caller account is not authorized to perform an operation."
        }
      ],
      "ReentrancyGuardReentrantCall()": [
        {
          "details": "Unauthorized reentrant call."
        }
      ],
      "SafeERC20FailedOperation(address)": [
        {
          "details": "An operation with an ERC20 token failed."
        }
      ]
    },
    "kind": "dev",
    "methods": {
      "owner()": {
        "details": "Returns the address of the current owner."
      },
      "renounceOwnership()": {
        "details": "Leaves the contract without owner. It will not be possible to call `onlyOwner` functions. Can only be called by the current owner. NOTE: Renouncing ownership will leave the contract without an owner, thereby disabling any functionality that is only available to the owner."
      },
      "transferOwnership(address)": {
        "details": "Transfers ownership of the contract to a new account (`newOwner`). Can only be called by the current owner."
      }
    },
    "version": 1
  },
  "userdoc": {
    "kind": "user",
    "methods": {
      "cancelRaffle(uint256,string)": {
        "notice": "Organizer can only cancel if no tickets sold. After that, only owner can cancel."
      },
      "emergencyWithdraw(address,uint256)": {
        "notice": "Owner-only emergency withdraw for tokens stuck outside of active raffles"
      },
      "forceExpireRaffle(uint256)": {
        "notice": "Force-cancel an expired raffle that was never drawn, enabling refunds"
      },
      "getStakeAmount(address)": {
        "notice": "Get the stake amount for a token based on its decimals"
      },
      "registerAsOrganizer(address)": {
        "notice": "Stake 1 token to register as organizer for that token's raffles"
      },
      "slashOrganizer(address,address,string)": {
        "notice": "Owner can slash a bad organizer's stake for a specific token"
      },
      "unregisterAsOrganizer(address)": {
        "notice": "Unregister and get stake back for a specific token (only if no active raffles with that token)"
      }
    },
    "version": 1
  },
  "storageLayout": {
    "storage": [
      {
        "astId": 8,
        "contract": "contracts/AgentRaffleV3.sol:AgentRaffleV3",
        "label": "_owner",
        "offset": 0,
        "slot": "0",
        "type": "t_address"
      },
      {
        "astId": 845,
        "contract": "contracts/AgentRaffleV3.sol:AgentRaffleV3",
        "label": "_status",
        "offset": 0,
        "slot": "1",
        "type": "t_uint256"
      },
      {
        "astId": 958,
        "contract": "contracts/AgentRaffleV3.sol:AgentRaffleV3",
        "label": "raffleCounter",
        "offset": 0,
        "slot": "2",
        "type": "t_uint256"
      },
      {
        "astId": 960,
        "contract": "contracts/AgentRaffleV3.sol:AgentRaffleV3",
        "label": "agentPaused",
        "offset": 0,
        "slot": "3",
        "type": "t_bool"
      },
      {
        "astId": 962,
        "contract": "contracts/AgentRaffleV3.sol:AgentRaffleV3",
        "label": "treasury",
        "offset": 1,
        "slot": "3",
        "type": "t_address"
      },
      {
        "astId": 965,
        "contract": "contracts/AgentRaffleV3.sol:AgentRaffleV3",
        "label": "platformFeeBps",
        "offset": 0,
        "slot": "4",
        "type": "t_uint256"
      },
      {
        "astId": 968,
        "contract": "contracts/AgentRaffleV3.sol:AgentRaffleV3",
        "label": "organizerFeeBps",
        "offset": 0,
        "slot": "5",
        "type": "t_uint256"
      },
      {
        "astId": 979,
        "contract": "contracts/AgentRaffleV3.sol:AgentRaffleV3",
        "label": "pendingChangeCount",
        "offset": 0,
        "slot": "6",
        "type": "t_uint256"
      },
      {
        "astId": 984,
        "contract": "contracts/AgentRaffleV3.sol:AgentRaffleV3",
        "label": "pendingChanges",
        "offset": 0,
        "slot": "7",
        "type": "t_mapping(t_uint256,t_struct(PendingChange)977_storage)"
      },
      {
        "astId": 989,
        "contract": "contracts/AgentRaffleV3.sol:AgentRaffleV3",
        "label": "raffles",
        "offset": 0,
        "slot": "8",
        "type": "t_mapping(t_uint256,t_struct(Raffle)944_storage)"
      },
      {
        "astId": 995,
        "contract": "contracts/AgentRaffleV3.sol:AgentRaffleV3",
        "label": "ticketOwners",
        "offset": 0,
        "slot": "9",
        "type": "t_mapping(t_uint256,t_mapping(t_uint256,t_address))"
      },
      {
        "astId": 1001,
        "contract": "contracts/AgentRaffleV3.sol:AgentRaffleV3",
        "label": "participantTickets",
        "offset": 0,
        "slot": "10",
        "type": "t_mapping(t_uint256,t_mapping(t_address,t_uint256))"
      },
      {
        "astId": 1005,
        "contract": "contracts/AgentRaffleV3.sol:AgentRaffleV3",
        "label": "vrfRequestIds",
        "offset": 0,
        "slot": "11",
        "type": "t_mapping(t_uint256,t_bytes32)"
      },
      {
        "astId": 1009,
        "contract": "contracts/AgentRaffleV3.sol:AgentRaffleV3",
        "label": "vrfRequested",
        "offset": 0,
        "slot": "12",
        "type": "t_mapping(t_uint256,t_bool)"
      },
      {
        "astId": 1013,
        "contract": "contracts/AgentRaffleV3.sol:AgentRaffleV3",
        "label": "vrfHashes",
        "offset": 0,
        "slot": "13",
        "type": "t_mapping(t_uint256,t_bytes32)"
      },
      {
        "astId": 1017,
        "contract": "contracts/AgentRaffleV3.sol:AgentRaffleV3",
        "label": "allowedTokens",
        "offset": 0,
        "slot": "14",
        "type": "t_mapping(t_address,t_bool)"
      },
      {
        "astId": 1021,
        "contract": "contracts/AgentRaffleV3.sol:AgentRaffleV3",
        "label": "tokenDecimals",
        "offset": 0,
        "slot": "15",
        "type": "t_mapping(t_address,t_uint8)"
      },
      {
        "astId": 1025,
        "contract": "contracts/AgentRaffleV3.sol:AgentRaffleV3",
        "label": "allowedOrganizers",
        "offset": 0,
        "slot": "16",
        "type": "t_mapping(t_address,t_bool)"
      },
      {
        "astId": 1031,
        "contract": "contracts/AgentRaffleV3.sol:AgentRaffleV3",
        "label": "organizerStakes",
        "offset": 0,
        "slot": "17",
        "type": "t_mapping(t_address,t_mapping(t_address,t_uint256))"
      },
      {
        "astId": 1035,
        "contract": "contracts/AgentRaffleV3.sol:AgentRaffleV3",
        "label": "refundedTickets",
        "offset": 0,
        "slot": "18",
        "type": "t_mapping(t_uint256,t_uint256)"
      }
    ],
    "types": {
      "t_address": {
        "encoding": "inplace",
        "label": "address",
        "numberOfBytes": "20"
      },
      "t_bool": {
        "encoding": "inplace",
        "label": "bool",
        "numberOfBytes": "1"
      },
      "t_bytes32": {
        "encoding": "inplace",
        "label": "bytes32",
        "numberOfBytes": "32"
      },
      "t_bytes_storage": {
        "encoding": "bytes",
        "label": "bytes",
        "numberOfBytes": "32"
      },
      "t_mapping(t_address,t_bool)": {
        "encoding": "mapping",
        "key": "t_address",
        "label": "mapping(address => bool)",
        "numberOfBytes": "32",
        "value": "t_bool"
      },
      "t_mapping(t_address,t_mapping(t_address,t_uint256))": {
        "encoding": "mapping",
        "key": "t_address",
        "label": "mapping(address => mapping(address => uint256))",
        "numberOfBytes": "32",
        "value": "t_mapping(t_address,t_uint256)"
      },
      "t_mapping(t_address,t_uint256)": {
        "encoding": "mapping",
        "key": "t_address",
        "label": "mapping(address => uint256)",
        "numberOfBytes": "32",
        "value": "t_uint256"
      },
      "t_mapping(t_address,t_uint8)": {
        "encoding": "mapping",
        "key": "t_address",
        "label": "mapping(address => uint8)",
        "numberOfBytes": "32",
        "value": "t_uint8"
      },
      "t_mapping(t_uint256,t_address)": {
        "encoding": "mapping",
        "key": "t_uint256",
        "label": "mapping(uint256 => address)",
        "numberOfBytes": "32",
        "value": "t_address"
      },
      "t_mapping(t_uint256,t_bool)": {
        "encoding": "mapping",
        "key": "t_uint256",
        "label": "mapping(uint256 => bool)",
        "numberOfBytes": "32",
        "value": "t_bool"
      },
      "t_mapping(t_uint256,t_bytes32)": {
        "encoding": "mapping",
        "key": "t_uint256",
        "label": "mapping(uint256 => bytes32)",
        "numberOfBytes": "32",
        "value": "t_bytes32"
      },
      "t_mapping(t_uint256,t_mapping(t_address,t_uint256))": {
        "encoding": "mapping",
        "key": "t_uint256",
        "label": "mapping(uint256 => mapping(address => uint256))",
        "numberOfBytes": "32",
        "value": "t_mapping(t_address,t_uint256)"
      },
      "t_mapping(t_uint256,t_mapping(t_uint256,t_address))": {
        "encoding": "mapping",
        "key": "t_uint256",
        "label": "mapping(uint256 => mapping(uint256 => address))",
        "numberOfBytes": "32",
        "value": "t_mapping(t_uint256,t_address)"
      },
      "t_mapping(t_uint256,t_struct(PendingChange)977_storage)": {
        "encoding": "mapping",
        "key": "t_uint256",
        "label": "mapping(uint256 => struct AgentRaffleV3.PendingChange)",
        "numberOfBytes": "32",
        "value": "t_struct(PendingChange)977_storage"
      },
      "t_mapping(t_uint256,t_struct(Raffle)944_storage)": {
        "encoding": "mapping",
        "key": "t_uint256",
        "label": "mapping(uint256 => struct AgentRaffleV3.Raffle)",
        "numberOfBytes": "32",
        "value": "t_struct(Raffle)944_storage"
      },
      "t_mapping(t_uint256,t_uint256)": {
        "encoding": "mapping",
        "key": "t_uint256",
        "label": "mapping(uint256 => uint256)",
        "numberOfBytes": "32",
        "value": "t_uint256"
      },
      "t_struct(PendingChange)977_storage": {
        "encoding": "inplace",
        "label": "struct AgentRaffleV3.PendingChange",
        "members": [
          {
            "astId": 970,
            "contract": "contracts/AgentRaffleV3.sol:AgentRaffleV3",
            "label": "changeType",
            "offset": 0,
            "slot": "0",
            "type": "t_bytes32"
          },
          {
            "astId": 972,
            "contract": "contracts/AgentRaffleV3.sol:AgentRaffleV3",
            "label": "data",
            "offset": 0,
            "slot": "1",
            "type": "t_bytes_storage"
          },
          {
            "astId": 974,
            "contract": "contracts/AgentRaffleV3.sol:AgentRaffleV3",
            "label": "executeAfter",
            "offset": 0,
            "slot": "2",
            "type": "t_uint256"
          },
          {
            "astId": 976,
            "contract": "contracts/AgentRaffleV3.sol:AgentRaffleV3",
            "label": "exists",
            "offset": 0,
            "slot": "3",
            "type": "t_bool"
          }
        ],
        "numberOfBytes": "128"
      },
      "t_struct(Raffle)944_storage": {
        "encoding": "inplace",
        "label": "struct AgentRaffleV3.Raffle",
        "members": [
          {
            "astId": 919,
            "contract": "contracts/AgentRaffleV3.sol:AgentRaffleV3",
            "label": "organizer",
            "offset": 0,
            "slot": "0",
            "type": "t_address"
          },
          {
            "astId": 921,
            "contract": "contracts/AgentRaffleV3.sol:AgentRaffleV3",
            "label": "paymentToken",
            "offset": 0,
            "slot": "1",
            "type": "t_address"
          },
          {
            "astId": 923,
            "contract": "contracts/AgentRaffleV3.sol:AgentRaffleV3",
            "label": "ticketPrice",
            "offset": 0,
            "slot": "2",
            "type": "t_uint256"
          },
          {
            "astId": 925,
            "contract": "contracts/AgentRaffleV3.sol:AgentRaffleV3",
            "label": "maxTickets",
            "offset": 0,
            "slot": "3",
            "type": "t_uint256"
          },
          {
            "astId": 927,
            "contract": "contracts/AgentRaffleV3.sol:AgentRaffleV3",
            "label": "totalTickets",
            "offset": 0,
            "slot": "4",
            "type": "t_uint256"
          },
          {
            "astId": 929,
            "contract": "contracts/AgentRaffleV3.sol:AgentRaffleV3",
            "label": "startTime",
            "offset": 0,
            "slot": "5",
            "type": "t_uint256"
          },
          {
            "astId": 931,
            "contract": "contracts/AgentRaffleV3.sol:AgentRaffleV3",
            "label": "endTime",
            "offset": 0,
            "slot": "6",
            "type": "t_uint256"
          },
          {
            "astId": 933,
            "contract": "contracts/AgentRaffleV3.sol:AgentRaffleV3",
            "label": "isActive",
            "offset": 0,
            "slot": "7",
            "type": "t_bool"
          },
          {
            "astId": 935,
            "contract": "contracts/AgentRaffleV3.sol:AgentRaffleV3",
            "label": "isDrawn",
            "offset": 1,
            "slot": "7",
            "type": "t_bool"
          },
          {
            "astId": 937,
            "contract": "contracts/AgentRaffleV3.sol:AgentRaffleV3",
            "label": "isCancelled",
            "offset": 2,
            "slot": "7",
            "type": "t_bool"
          },
          {
            "astId": 939,
            "contract": "contracts/AgentRaffleV3.sol:AgentRaffleV3",
            "label": "winner",
            "offset": 3,
            "slot": "7",
            "type": "t_address"
          },
          {
            "astId": 941,
            "contract": "contracts/AgentRaffleV3.sol:AgentRaffleV3",
            "label": "winningTicket",
            "offset": 0,
            "slot": "8",
            "type": "t_uint256"
          },
          {
            "astId": 943,
            "contract": "contracts/AgentRaffleV3.sol:AgentRaffleV3",
            "label": "totalPrize",
            "offset": 0,
            "slot": "9",
            "type": "t_uint256"
          }
        ],
        "numberOfBytes": "320"
      },
      "t_uint256": {
        "encoding": "inplace",
        "label": "uint256",
        "numberOfBytes": "32"
      },
      "t_uint8": {
        "encoding": "inplace",
        "label": "uint8",
        "numberOfBytes": "1"
      }
    }
  }
}