{
  "address": "0xdB8a328fd0e14609937f38bD124950e1f70Fc8c2",
  "abi": [
    {
      "inputs": [
        {
          "internalType": "address",
          "name": "_treasury",
          "type": "address"
        },
        {
          "internalType": "address",
          "name": "_stakeToken",
          "type": "address"
        }
      ],
      "stateMutability": "nonpayable",
      "type": "constructor"
    },
    {
      "inputs": [
        {
          "internalType": "address",
          "name": "target",
          "type": "address"
        }
      ],
      "name": "AddressEmptyCode",
      "type": "error"
    },
    {
      "inputs": [
        {
          "internalType": "address",
          "name": "account",
          "type": "address"
        }
      ],
      "name": "AddressInsufficientBalance",
      "type": "error"
    },
    {
      "inputs": [],
      "name": "FailedInnerCall",
      "type": "error"
    },
    {
      "inputs": [
        {
          "internalType": "address",
          "name": "owner",
          "type": "address"
        }
      ],
      "name": "OwnableInvalidOwner",
      "type": "error"
    },
    {
      "inputs": [
        {
          "internalType": "address",
          "name": "account",
          "type": "address"
        }
      ],
      "name": "OwnableUnauthorizedAccount",
      "type": "error"
    },
    {
      "inputs": [],
      "name": "ReentrancyGuardReentrantCall",
      "type": "error"
    },
    {
      "inputs": [
        {
          "internalType": "address",
          "name": "token",
          "type": "address"
        }
      ],
      "name": "SafeERC20FailedOperation",
      "type": "error"
    },
    {
      "anonymous": false,
      "inputs": [
        {
          "indexed": true,
          "internalType": "uint256",
          "name": "changeId",
          "type": "uint256"
        }
      ],
      "name": "ChangeCancelled",
      "type": "event"
    },
    {
      "anonymous": false,
      "inputs": [
        {
          "indexed": true,
          "internalType": "uint256",
          "name": "changeId",
          "type": "uint256"
        },
        {
          "indexed": false,
          "internalType": "bytes32",
          "name": "changeType",
          "type": "bytes32"
        }
      ],
      "name": "ChangeExecuted",
      "type": "event"
    },
    {
      "anonymous": false,
      "inputs": [
        {
          "indexed": true,
          "internalType": "uint256",
          "name": "changeId",
          "type": "uint256"
        },
        {
          "indexed": false,
          "internalType": "bytes32",
          "name": "changeType",
          "type": "bytes32"
        },
        {
          "indexed": false,
          "internalType": "uint256",
          "name": "executeAfter",
          "type": "uint256"
        }
      ],
      "name": "ChangeQueued",
      "type": "event"
    },
    {
      "anonymous": false,
      "inputs": [
        {
          "indexed": false,
          "internalType": "uint256",
          "name": "platformFeeBps",
          "type": "uint256"
        },
        {
          "indexed": false,
          "internalType": "uint256",
          "name": "organizerFeeBps",
          "type": "uint256"
        }
      ],
      "name": "FeesUpdated",
      "type": "event"
    },
    {
      "anonymous": false,
      "inputs": [
        {
          "indexed": false,
          "internalType": "address",
          "name": "organizer",
          "type": "address"
        },
        {
          "indexed": false,
          "internalType": "bool",
          "name": "allowed",
          "type": "bool"
        }
      ],
      "name": "OrganizerAllowed",
      "type": "event"
    },
    {
      "anonymous": false,
      "inputs": [
        {
          "indexed": false,
          "internalType": "address",
          "name": "organizer",
          "type": "address"
        },
        {
          "indexed": false,
          "internalType": "uint256",
          "name": "stake",
          "type": "uint256"
        }
      ],
      "name": "OrganizerRegistered",
      "type": "event"
    },
    {
      "anonymous": false,
      "inputs": [
        {
          "indexed": false,
          "internalType": "address",
          "name": "organizer",
          "type": "address"
        },
        {
          "indexed": false,
          "internalType": "uint256",
          "name": "amount",
          "type": "uint256"
        },
        {
          "indexed": false,
          "internalType": "string",
          "name": "reason",
          "type": "string"
        }
      ],
      "name": "OrganizerSlashed",
      "type": "event"
    },
    {
      "anonymous": false,
      "inputs": [
        {
          "indexed": false,
          "internalType": "address",
          "name": "organizer",
          "type": "address"
        },
        {
          "indexed": false,
          "internalType": "uint256",
          "name": "stakeReturned",
          "type": "uint256"
        }
      ],
      "name": "OrganizerUnregistered",
      "type": "event"
    },
    {
      "anonymous": false,
      "inputs": [
        {
          "indexed": true,
          "internalType": "address",
          "name": "previousOwner",
          "type": "address"
        },
        {
          "indexed": true,
          "internalType": "address",
          "name": "newOwner",
          "type": "address"
        }
      ],
      "name": "OwnershipTransferred",
      "type": "event"
    },
    {
      "anonymous": false,
      "inputs": [
        {
          "indexed": true,
          "internalType": "uint256",
          "name": "raffleId",
          "type": "uint256"
        },
        {
          "indexed": false,
          "internalType": "string",
          "name": "reason",
          "type": "string"
        }
      ],
      "name": "RaffleCancelled",
      "type": "event"
    },
    {
      "anonymous": false,
      "inputs": [
        {
          "indexed": true,
          "internalType": "uint256",
          "name": "raffleId",
          "type": "uint256"
        },
        {
          "indexed": true,
          "internalType": "address",
          "name": "organizer",
          "type": "address"
        },
        {
          "indexed": false,
          "internalType": "address",
          "name": "paymentToken",
          "type": "address"
        },
        {
          "indexed": false,
          "internalType": "uint256",
          "name": "ticketPrice",
          "type": "uint256"
        },
        {
          "indexed": false,
          "internalType": "uint256",
          "name": "maxTickets",
          "type": "uint256"
        },
        {
          "indexed": false,
          "internalType": "uint256",
          "name": "endTime",
          "type": "uint256"
        }
      ],
      "name": "RaffleCreated",
      "type": "event"
    },
    {
      "anonymous": false,
      "inputs": [
        {
          "indexed": true,
          "internalType": "uint256",
          "name": "raffleId",
          "type": "uint256"
        },
        {
          "indexed": true,
          "internalType": "address",
          "name": "participant",
          "type": "address"
        },
        {
          "indexed": false,
          "internalType": "uint256",
          "name": "ticketCount",
          "type": "uint256"
        },
        {
          "indexed": false,
          "internalType": "uint256",
          "name": "amountPaid",
          "type": "uint256"
        }
      ],
      "name": "TicketPurchased",
      "type": "event"
    },
    {
      "anonymous": false,
      "inputs": [
        {
          "indexed": false,
          "internalType": "address",
          "name": "token",
          "type": "address"
        },
        {
          "indexed": false,
          "internalType": "bool",
          "name": "allowed",
          "type": "bool"
        }
      ],
      "name": "TokenAllowed",
      "type": "event"
    },
    {
      "anonymous": false,
      "inputs": [
        {
          "indexed": false,
          "internalType": "address",
          "name": "newTreasury",
          "type": "address"
        }
      ],
      "name": "TreasuryUpdated",
      "type": "event"
    },
    {
      "anonymous": false,
      "inputs": [
        {
          "indexed": true,
          "internalType": "uint256",
          "name": "raffleId",
          "type": "uint256"
        },
        {
          "indexed": true,
          "internalType": "address",
          "name": "winner",
          "type": "address"
        },
        {
          "indexed": false,
          "internalType": "uint256",
          "name": "winningTicket",
          "type": "uint256"
        },
        {
          "indexed": false,
          "internalType": "bytes32",
          "name": "vrfHash",
          "type": "bytes32"
        }
      ],
      "name": "WinnerSelected",
      "type": "event"
    },
    {
      "inputs": [],
      "name": "MAX_TOTAL_FEE_BPS",
      "outputs": [
        {
          "internalType": "uint256",
          "name": "",
          "type": "uint256"
        }
      ],
      "stateMutability": "view",
      "type": "function"
    },
    {
      "inputs": [],
      "name": "ORGANIZER_STAKE",
      "outputs": [
        {
          "internalType": "uint256",
          "name": "",
          "type": "uint256"
        }
      ],
      "stateMutability": "view",
      "type": "function"
    },
    {
      "inputs": [],
      "name": "TIMELOCK_DELAY",
      "outputs": [
        {
          "internalType": "uint256",
          "name": "",
          "type": "uint256"
        }
      ],
      "stateMutability": "view",
      "type": "function"
    },
    {
      "inputs": [],
      "name": "agentPaused",
      "outputs": [
        {
          "internalType": "bool",
          "name": "",
          "type": "bool"
        }
      ],
      "stateMutability": "view",
      "type": "function"
    },
    {
      "inputs": [
        {
          "internalType": "address",
          "name": "",
          "type": "address"
        }
      ],
      "name": "allowedOrganizers",
      "outputs": [
        {
          "internalType": "bool",
          "name": "",
          "type": "bool"
        }
      ],
      "stateMutability": "view",
      "type": "function"
    },
    {
      "inputs": [
        {
          "internalType": "address",
          "name": "",
          "type": "address"
        }
      ],
      "name": "allowedTokens",
      "outputs": [
        {
          "internalType": "bool",
          "name": "",
          "type": "bool"
        }
      ],
      "stateMutability": "view",
      "type": "function"
    },
    {
      "inputs": [
        {
          "internalType": "uint256",
          "name": "_changeId",
          "type": "uint256"
        }
      ],
      "name": "cancelChange",
      "outputs": [],
      "stateMutability": "nonpayable",
      "type": "function"
    },
    {
      "inputs": [
        {
          "internalType": "uint256",
          "name": "_raffleId",
          "type": "uint256"
        },
        {
          "internalType": "string",
          "name": "_reason",
          "type": "string"
        }
      ],
      "name": "cancelRaffle",
      "outputs": [],
      "stateMutability": "nonpayable",
      "type": "function"
    },
    {
      "inputs": [
        {
          "internalType": "address",
          "name": "_paymentToken",
          "type": "address"
        },
        {
          "internalType": "uint256",
          "name": "_ticketPrice",
          "type": "uint256"
        },
        {
          "internalType": "uint256",
          "name": "_maxTickets",
          "type": "uint256"
        },
        {
          "internalType": "uint256",
          "name": "_duration",
          "type": "uint256"
        }
      ],
      "name": "createRaffle",
      "outputs": [
        {
          "internalType": "uint256",
          "name": "",
          "type": "uint256"
        }
      ],
      "stateMutability": "nonpayable",
      "type": "function"
    },
    {
      "inputs": [
        {
          "internalType": "uint256",
          "name": "_raffleId",
          "type": "uint256"
        },
        {
          "internalType": "uint256",
          "name": "_randomNumber",
          "type": "uint256"
        },
        {
          "internalType": "bytes32",
          "name": "_vrfHash",
          "type": "bytes32"
        }
      ],
      "name": "drawWinner",
      "outputs": [],
      "stateMutability": "nonpayable",
      "type": "function"
    },
    {
      "inputs": [
        {
          "internalType": "uint256",
          "name": "_raffleId",
          "type": "uint256"
        }
      ],
      "name": "emergencyRefund",
      "outputs": [],
      "stateMutability": "nonpayable",
      "type": "function"
    },
    {
      "inputs": [
        {
          "internalType": "address",
          "name": "_token",
          "type": "address"
        },
        {
          "internalType": "uint256",
          "name": "_amount",
          "type": "uint256"
        }
      ],
      "name": "emergencyWithdraw",
      "outputs": [],
      "stateMutability": "nonpayable",
      "type": "function"
    },
    {
      "inputs": [
        {
          "internalType": "uint256",
          "name": "_changeId",
          "type": "uint256"
        }
      ],
      "name": "executeChange",
      "outputs": [],
      "stateMutability": "nonpayable",
      "type": "function"
    },
    {
      "inputs": [
        {
          "internalType": "uint256",
          "name": "_raffleId",
          "type": "uint256"
        }
      ],
      "name": "forceExpireRaffle",
      "outputs": [],
      "stateMutability": "nonpayable",
      "type": "function"
    },
    {
      "inputs": [],
      "name": "getActiveRaffles",
      "outputs": [
        {
          "internalType": "uint256[]",
          "name": "",
          "type": "uint256[]"
        }
      ],
      "stateMutability": "view",
      "type": "function"
    },
    {
      "inputs": [
        {
          "internalType": "uint256",
          "name": "_raffleId",
          "type": "uint256"
        },
        {
          "internalType": "address",
          "name": "_participant",
          "type": "address"
        }
      ],
      "name": "getParticipantTickets",
      "outputs": [
        {
          "internalType": "uint256",
          "name": "",
          "type": "uint256"
        }
      ],
      "stateMutability": "view",
      "type": "function"
    },
    {
      "inputs": [
        {
          "internalType": "uint256",
          "name": "_raffleId",
          "type": "uint256"
        }
      ],
      "name": "getRaffle",
      "outputs": [
        {
          "components": [
            {
              "internalType": "address",
              "name": "organizer",
              "type": "address"
            },
            {
              "internalType": "address",
              "name": "paymentToken",
              "type": "address"
            },
            {
              "internalType": "uint256",
              "name": "ticketPrice",
              "type": "uint256"
            },
            {
              "internalType": "uint256",
              "name": "maxTickets",
              "type": "uint256"
            },
            {
              "internalType": "uint256",
              "name": "totalTickets",
              "type": "uint256"
            },
            {
              "internalType": "uint256",
              "name": "startTime",
              "type": "uint256"
            },
            {
              "internalType": "uint256",
              "name": "endTime",
              "type": "uint256"
            },
            {
              "internalType": "bool",
              "name": "isActive",
              "type": "bool"
            },
            {
              "internalType": "bool",
              "name": "isDrawn",
              "type": "bool"
            },
            {
              "internalType": "bool",
              "name": "isCancelled",
              "type": "bool"
            },
            {
              "internalType": "address",
              "name": "winner",
              "type": "address"
            },
            {
              "internalType": "uint256",
              "name": "winningTicket",
              "type": "uint256"
            },
            {
              "internalType": "uint256",
              "name": "totalPrize",
              "type": "uint256"
            }
          ],
          "internalType": "struct AgentRaffleV2.Raffle",
          "name": "",
          "type": "tuple"
        }
      ],
      "stateMutability": "view",
      "type": "function"
    },
    {
      "inputs": [
        {
          "internalType": "address",
          "name": "_organizer",
          "type": "address"
        }
      ],
      "name": "getRafflesByOrganizer",
      "outputs": [
        {
          "internalType": "uint256[]",
          "name": "",
          "type": "uint256[]"
        }
      ],
      "stateMutability": "view",
      "type": "function"
    },
    {
      "inputs": [
        {
          "internalType": "uint256",
          "name": "_raffleId",
          "type": "uint256"
        },
        {
          "internalType": "uint256",
          "name": "_ticketNumber",
          "type": "uint256"
        }
      ],
      "name": "getTicketOwner",
      "outputs": [
        {
          "internalType": "address",
          "name": "",
          "type": "address"
        }
      ],
      "stateMutability": "view",
      "type": "function"
    },
    {
      "inputs": [
        {
          "internalType": "uint256",
          "name": "_raffleId",
          "type": "uint256"
        }
      ],
      "name": "getVRFRequestStatus",
      "outputs": [
        {
          "internalType": "bytes32",
          "name": "requestId",
          "type": "bytes32"
        },
        {
          "internalType": "bool",
          "name": "requested",
          "type": "bool"
        }
      ],
      "stateMutability": "view",
      "type": "function"
    },
    {
      "inputs": [],
      "name": "organizerFeeBps",
      "outputs": [
        {
          "internalType": "uint256",
          "name": "",
          "type": "uint256"
        }
      ],
      "stateMutability": "view",
      "type": "function"
    },
    {
      "inputs": [
        {
          "internalType": "address",
          "name": "",
          "type": "address"
        }
      ],
      "name": "organizerStakes",
      "outputs": [
        {
          "internalType": "uint256",
          "name": "",
          "type": "uint256"
        }
      ],
      "stateMutability": "view",
      "type": "function"
    },
    {
      "inputs": [],
      "name": "owner",
      "outputs": [
        {
          "internalType": "address",
          "name": "",
          "type": "address"
        }
      ],
      "stateMutability": "view",
      "type": "function"
    },
    {
      "inputs": [],
      "name": "pendingChangeCount",
      "outputs": [
        {
          "internalType": "uint256",
          "name": "",
          "type": "uint256"
        }
      ],
      "stateMutability": "view",
      "type": "function"
    },
    {
      "inputs": [
        {
          "internalType": "uint256",
          "name": "",
          "type": "uint256"
        }
      ],
      "name": "pendingChanges",
      "outputs": [
        {
          "internalType": "bytes32",
          "name": "changeType",
          "type": "bytes32"
        },
        {
          "internalType": "bytes",
          "name": "data",
          "type": "bytes"
        },
        {
          "internalType": "uint256",
          "name": "executeAfter",
          "type": "uint256"
        },
        {
          "internalType": "bool",
          "name": "exists",
          "type": "bool"
        }
      ],
      "stateMutability": "view",
      "type": "function"
    },
    {
      "inputs": [],
      "name": "platformFeeBps",
      "outputs": [
        {
          "internalType": "uint256",
          "name": "",
          "type": "uint256"
        }
      ],
      "stateMutability": "view",
      "type": "function"
    },
    {
      "inputs": [
        {
          "internalType": "uint256",
          "name": "_raffleId",
          "type": "uint256"
        },
        {
          "internalType": "uint256",
          "name": "_ticketCount",
          "type": "uint256"
        }
      ],
      "name": "purchaseTickets",
      "outputs": [],
      "stateMutability": "nonpayable",
      "type": "function"
    },
    {
      "inputs": [
        {
          "internalType": "uint256",
          "name": "_platformFeeBps",
          "type": "uint256"
        },
        {
          "internalType": "uint256",
          "name": "_organizerFeeBps",
          "type": "uint256"
        }
      ],
      "name": "queueSetFees",
      "outputs": [],
      "stateMutability": "nonpayable",
      "type": "function"
    },
    {
      "inputs": [
        {
          "internalType": "address",
          "name": "_treasury",
          "type": "address"
        }
      ],
      "name": "queueSetTreasury",
      "outputs": [],
      "stateMutability": "nonpayable",
      "type": "function"
    },
    {
      "inputs": [],
      "name": "raffleCounter",
      "outputs": [
        {
          "internalType": "uint256",
          "name": "",
          "type": "uint256"
        }
      ],
      "stateMutability": "view",
      "type": "function"
    },
    {
      "inputs": [],
      "name": "registerAsOrganizer",
      "outputs": [],
      "stateMutability": "nonpayable",
      "type": "function"
    },
    {
      "inputs": [],
      "name": "renounceOwnership",
      "outputs": [],
      "stateMutability": "nonpayable",
      "type": "function"
    },
    {
      "inputs": [
        {
          "internalType": "bool",
          "name": "_paused",
          "type": "bool"
        }
      ],
      "name": "setAgentPaused",
      "outputs": [],
      "stateMutability": "nonpayable",
      "type": "function"
    },
    {
      "inputs": [
        {
          "internalType": "address",
          "name": "_organizer",
          "type": "address"
        },
        {
          "internalType": "bool",
          "name": "_allowed",
          "type": "bool"
        }
      ],
      "name": "setAllowedOrganizer",
      "outputs": [],
      "stateMutability": "nonpayable",
      "type": "function"
    },
    {
      "inputs": [
        {
          "internalType": "address",
          "name": "_token",
          "type": "address"
        },
        {
          "internalType": "bool",
          "name": "_allowed",
          "type": "bool"
        }
      ],
      "name": "setAllowedToken",
      "outputs": [],
      "stateMutability": "nonpayable",
      "type": "function"
    },
    {
      "inputs": [
        {
          "internalType": "address",
          "name": "_organizer",
          "type": "address"
        },
        {
          "internalType": "string",
          "name": "_reason",
          "type": "string"
        }
      ],
      "name": "slashOrganizer",
      "outputs": [],
      "stateMutability": "nonpayable",
      "type": "function"
    },
    {
      "inputs": [],
      "name": "stakeToken",
      "outputs": [
        {
          "internalType": "address",
          "name": "",
          "type": "address"
        }
      ],
      "stateMutability": "view",
      "type": "function"
    },
    {
      "inputs": [
        {
          "internalType": "address",
          "name": "newOwner",
          "type": "address"
        }
      ],
      "name": "transferOwnership",
      "outputs": [],
      "stateMutability": "nonpayable",
      "type": "function"
    },
    {
      "inputs": [],
      "name": "treasury",
      "outputs": [
        {
          "internalType": "address",
          "name": "",
          "type": "address"
        }
      ],
      "stateMutability": "view",
      "type": "function"
    },
    {
      "inputs": [],
      "name": "unregisterAsOrganizer",
      "outputs": [],
      "stateMutability": "nonpayable",
      "type": "function"
    },
    {
      "inputs": [
        {
          "internalType": "uint256",
          "name": "",
          "type": "uint256"
        }
      ],
      "name": "vrfHashes",
      "outputs": [
        {
          "internalType": "bytes32",
          "name": "",
          "type": "bytes32"
        }
      ],
      "stateMutability": "view",
      "type": "function"
    }
  ],
  "transactionHash": "0x7f3cc04dcbea05df716c1ab31a41501b749f82346af4756ee431f0c1fed49cf7",
  "args": [
    "0xaDA1E751F2BB9b245Ca59a381f92394591233D71",
    "0x765de816845861e75a25fca122bb6898b8b1282a"
  ],
  "numDeployments": 1,
  "solcInputHash": "b6bbe2c20e30d1dabcd6cbbebb4ded70",
  "bytecode": "0x608060405261012c60045560c860055534801561001b57600080fd5b506040516134b83803806134b883398101604081905261003a916101cf565b338061006157604051631e4fbdf760e01b8152600060048201526024015b60405180910390fd5b61006a81610163565b50600180556001600160a01b0382166100b85760405162461bcd60e51b815260206004820152601060248201526f496e76616c696420747265617375727960801b6044820152606401610058565b6001600160a01b03811661010e5760405162461bcd60e51b815260206004820152601360248201527f496e76616c6964207374616b6520746f6b656e000000000000000000000000006044820152606401610058565b60038054610100600160a81b0319166101006001600160a01b0394851602179055601180546001600160a01b03191691909216179055336000908152600f60205260409020805460ff19166001179055610202565b600080546001600160a01b038381166001600160a01b0319831681178455604051919092169283917f8be0079c531659141344cd1fd0a4f28419497f9722a3daafe3b4186f6b6457e09190a35050565b80516001600160a01b03811681146101ca57600080fd5b919050565b600080604083850312156101e257600080fd5b6101eb836101b3565b91506101f9602084016101b3565b90509250929050565b6132a7806102116000396000f3fe608060405234801561001057600080fd5b50600436106102535760003560e01c8063715018a611610146578063d96df944116100c3578063ec64bfe611610087578063ec64bfe614610539578063f0f470cf14610581578063f2a50d5e1461058a578063f2fde38b146105c0578063f4057c06146105d3578063f48e0bc0146105e657600080fd5b8063d96df944146104ad578063dd3e8b5b146104d0578063e4dafec9146104e3578063e744092e14610503578063ea0dfc151461052657600080fd5b806395ccea671161010a57806395ccea67146104635780639ce0ee7114610476578063c2f306a514610489578063c57a445914610492578063c60245e0146104a557600080fd5b8063715018a6146104045780637c75005b1461040c578063833c15d41461041f5780638aaa22841461043f5780638da5cb5b1461045257600080fd5b806351ed6a30116101d45780635ba1c1a9116101985780635ba1c1a9146103995780635f773d7f146103a35780635f9c264c146103b657806361d027b3146103d957806370e5deb9146103f157600080fd5b806351ed6a30146103225780635264c72a1461034d57806357415423146103605780635980e2e4146103735780635b57a2ed1461038657600080fd5b806322dcd13e1161021b57806322dcd13e146102df5780633a00adf6146102e85780633d09980e146103085780633dc70c1614610311578063431a9caa1461031957600080fd5b806304c26233146102585780630ba0d3de1461027a5780631512def514610297578063196fe7b1146102ac5780631da8ab5f146102bf575b600080fd5b610267670de0b6b3a764000081565b6040519081526020015b60405180910390f35b6003546102879060ff1681565b6040519015158152602001610271565b6102aa6102a5366004612b22565b6105ee565b005b6102aa6102ba366004612b4e565b61098c565b6102676102cd366004612b7c565b60106020526000908152604090205481565b61026760045481565b6102fb6102f6366004612b7c565b610cea565b6040516102719190612b99565b61026760055481565b6102fb610de5565b6102676103e881565b601154610335906001600160a01b031681565b6040516001600160a01b039091168152602001610271565b61026761035b366004612bdc565b610ed1565b6102aa61036e366004612c60565b611335565b6102aa610381366004612cba565b611470565b6102aa610394366004612b4e565b611526565b6102676202a30081565b6103356103b1366004612cf3565b6115e8565b6102876103c4366004612b7c565b600f6020526000908152604090205460ff1681565b6003546103359061010090046001600160a01b031681565b6102aa6103ff366004612b4e565b611612565b6102aa61173f565b6102aa61041a366004612d15565b611753565b61026761042d366004612b4e565b600d6020526000908152604090205481565b6102aa61044d366004612cba565b61176e565b6000546001600160a01b0316610335565b6102aa610471366004612d32565b6117f8565b6102aa610484366004612b4e565b6119eb565b61026760025481565b6102aa6104a0366004612d5e565b611ba0565b6102aa611c99565b6104c06104bb366004612b4e565b611e90565b6040516102719493929190612dbe565b6102aa6104de366004612cf3565b611f45565b6104f66104f1366004612b4e565b6120e5565b6040516102719190612e07565b610287610511366004612b7c565b600e6020526000908152604090205460ff1681565b6102aa610534366004612b7c565b612233565b61056c610547366004612b4e565b6000908152600b6020908152604080832054600c90925290912054909160ff90911690565b60408051928352901515602083015201610271565b61026760065481565b610267610598366004612ee1565b6000918252600a602090815260408084206001600160a01b0393909316845291905290205490565b6102aa6105ce366004612b7c565b6123c7565b6102aa6105e1366004612cf3565b612402565b6102aa612709565b6105f66127f5565b6000838152600860205260409020600781015460ff166106515760405162461bcd60e51b8152602060048201526011602482015270526166666c65206e6f742061637469766560781b60448201526064015b60405180910390fd5b6007810154610100900460ff161561067b5760405162461bcd60e51b815260040161064890612f06565b600781015462010000900460ff16156106c25760405162461bcd60e51b815260206004820152600960248201526810d85b98d95b1b195960ba1b6044820152606401610648565b8060060154421015806106dc575080600301548160040154145b6107185760405162461bcd60e51b815260206004820152600d60248201526c139bdd08195b991959081e595d609a1b6044820152606401610648565b600081600401541161075e5760405162461bcd60e51b815260206004820152600f60248201526e139bc81d1a58dad95d1cc81cdbdb19608a1b6044820152606401610648565b80546001600160a01b031633148061078057506000546001600160a01b031633145b6107bd5760405162461bcd60e51b815260206004820152600e60248201526d139bdd08185d5d1a1bdc9a5e995960921b6044820152606401610648565b60008160040154846107cf9190612f43565b600086815260096020818152604080842085855282528084205460078801805460088a0188905560ff1961ff001963010000006001600160a01b03909516949094029390931662ff0100600160b81b03199091161761010017821690558a8552600d8352818520899055600b8352818520899055600c9092528320805490911660011790556004549085015492935090916127109161086d91612f6d565b6108779190612f84565b9050600061271060055485600901546108909190612f6d565b61089a9190612f84565b90506000818386600901546108af9190612f98565b6108b99190612f98565b60035460018701549192506108e0916001600160a01b03908116916101009004168561281f565b845460018601546108fe916001600160a01b0391821691168461281f565b60078501546001860154610927916001600160a01b03918216916301000000909104168361281f565b6007850154604080518681526020810189905263010000009092046001600160a01b0316918a917fcec104e43773c202b6b944c0212bd13bde1bd93f38f64a328817e187c821b37d910160405180910390a3505050505061098760018055565b505050565b61099461287e565b6000818152600760205260409020600381015460ff166109ee5760405162461bcd60e51b815260206004820152601560248201527410da185b99d948191bd95cc81b9bdd08195e1a5cdd605a1b6044820152606401610648565b8060020154421015610a395760405162461bcd60e51b8152602060048201526014602482015273151a5b595b1bd8dac81b9bdd08195e1c1a5c995960621b6044820152606401610648565b80547f6cf08a6638278151a8a24a4804b3c601d1e91ed677f754698f9bc41cae2055d401610b5457600080826001018054610a7390612fab565b80601f0160208091040260200160405190810160405280929190818152602001828054610a9f90612fab565b8015610aec5780601f10610ac157610100808354040283529160200191610aec565b820191906000526020600020905b815481529060010190602001808311610acf57829003601f168201915b5050505050806020019051810190610b049190612fe5565b6004829055600581905560408051838152602081018390529294509092507f5c6323bf1c2d7aaea2c091a4751c1c87af7f2864650c336507a77d0557af37a1910160405180910390a15050610c7c565b80547f60907fa71b4340c9b1763617258148352562de4851591d02caa4b9967bd3a86b01610c7c576000816001018054610b8d90612fab565b80601f0160208091040260200160405190810160405280929190818152602001828054610bb990612fab565b8015610c065780601f10610bdb57610100808354040283529160200191610c06565b820191906000526020600020905b815481529060010190602001808311610be957829003601f168201915b5050505050806020019051810190610c1e9190613009565b60038054610100600160a81b0319166101006001600160a01b038416908102919091179091556040519081529091507f7dae230f18360d76a040c81f050aa14eb9d6dc7901b20fc5d855e2a20fe814d19060200160405180910390a1505b600082815260076020526040812081815590610c9b6001830182612ad4565b5060006002820155600301805460ff19169055805460405190815282907fa8212e189a3e603d1e984c2c65579e9aec36ce8105e11320eca93bc67c5ea65a906020015b60405180910390a25050565b60606000805b600254811015610d31576000818152600860205260409020546001600160a01b03808616911603610d295781610d2581613026565b9250505b600101610cf0565b5060008167ffffffffffffffff811115610d4d57610d4d61303f565b604051908082528060200260200182016040528015610d76578160200160208202803683370190505b5090506000805b600254811015610ddb576000818152600860205260409020546001600160a01b03808816911603610dd357808383610db481613026565b945081518110610dc657610dc6613055565b6020026020010181815250505b600101610d7d565b5090949350505050565b60606000805b600254811015610e255760008181526008602052604090206007015460ff1615610e1d5781610e1981613026565b9250505b600101610deb565b5060008167ffffffffffffffff811115610e4157610e4161303f565b604051908082528060200260200182016040528015610e6a578160200160208202803683370190505b5090506000805b600254811015610ec85760008181526008602052604090206007015460ff1615610ec057808383610ea181613026565b945081518110610eb357610eb3613055565b6020026020010181815250505b600101610e71565b50909392505050565b60035460009060ff1615610f195760405162461bcd60e51b815260206004820152600f60248201526e1059d95b9d081a5cc81c185d5cd959608a1b6044820152606401610648565b336000908152600f602052604090205460ff16610f785760405162461bcd60e51b815260206004820152601860248201527f4e6f7420616e20616c6c6f776564206f7267616e697a657200000000000000006044820152606401610648565b6001600160a01b038516610f9e5760405162461bcd60e51b81526004016106489061306b565b6001600160a01b0385166000908152600e602052604090205460ff16610ffa5760405162461bcd60e51b8152602060048201526011602482015270151bdad95b881b9bdd08185b1b1bddd959607a1b6044820152606401610648565b6000841161103e5760405162461bcd60e51b815260206004820152601160248201527005072696365206d757374206265203e203607c1b6044820152606401610648565b6000831161108e5760405162461bcd60e51b815260206004820152601760248201527f4d6178207469636b657473206d757374206265203e20300000000000000000006044820152606401610648565b600082116110d55760405162461bcd60e51b815260206004820152601460248201527304475726174696f6e206d757374206265203e20360641b6044820152606401610648565b60028054600091826110e683613026565b90915550905060006110f88442613092565b9050604051806101a00160405280336001600160a01b03168152602001886001600160a01b031681526020018781526020018681526020016000815260200142815260200182815260200160011515815260200160001515815260200160001515815260200160006001600160a01b031681526020016000815260200160008152506008600084815260200190815260200160002060008201518160000160006101000a8154816001600160a01b0302191690836001600160a01b0316021790555060208201518160010160006101000a8154816001600160a01b0302191690836001600160a01b0316021790555060408201518160020155606082015181600301556080820151816004015560a0820151816005015560c0820151816006015560e08201518160070160006101000a81548160ff0219169083151502179055506101008201518160070160016101000a81548160ff0219169083151502179055506101208201518160070160026101000a81548160ff0219169083151502179055506101408201518160070160036101000a8154816001600160a01b0302191690836001600160a01b0316021790555061016082015181600801556101808201518160090155905050336001600160a01b0316827f0f02bcb7d71760b8e13b55c22428b61f3bef745a6613a06a291608d77ca141908989898660405161132394939291906001600160a01b0394909416845260208401929092526040830152606082015260800190565b60405180910390a35095945050505050565b600083815260086020526040902080546001600160a01b031633148061136557506000546001600160a01b031633145b6113a25760405162461bcd60e51b815260206004820152600e60248201526d139bdd08185d5d1a1bdc9a5e995960921b6044820152606401610648565b6007810154610100900460ff16156113cc5760405162461bcd60e51b815260040161064890612f06565b600781015462010000900460ff161561141b5760405162461bcd60e51b8152602060048201526011602482015270105b1c9958591e4818d85b98d95b1b1959607a1b6044820152606401610648565b60078101805462ff00ff19166201000017905560405184907f4b065d94bb5f805836b9aefd08a7b4388cfdd8d346a56ef0a4a547dbca8b8f1f9061146290869086906130ce565b60405180910390a250505050565b61147861287e565b6001600160a01b0382166114c25760405162461bcd60e51b815260206004820152601160248201527024b73b30b634b21037b933b0b734bd32b960791b6044820152606401610648565b6001600160a01b0382166000818152600f6020908152604091829020805460ff19168515159081179091558251938452908301527f3526889267db1935400393fa34756d493c603492745018f142406a9473bd9bac91015b60405180910390a15050565b61152e61287e565b60008181526007602052604090206003015460ff166115875760405162461bcd60e51b815260206004820152601560248201527410da185b99d948191bd95cc81b9bdd08195e1a5cdd605a1b6044820152606401610648565b6000818152600760205260408120818155906115a66001830182612ad4565b506000600282018190556003909101805460ff1916905560405182917f5edd520c0103960fbe1e1fc55ae80c123b61704fa2429473cef253e3c90ae27e91a250565b60008281526009602090815260408083208484529091529020546001600160a01b03165b92915050565b61161a6127f5565b6000818152600860205260409020600781015462010000900460ff166116725760405162461bcd60e51b815260206004820152600d60248201526c139bdd0818d85b98d95b1b1959609a1b6044820152606401610648565b6000828152600a60209081526040808320338452909152902054806116c65760405162461bcd60e51b815260206004820152600a6024820152694e6f207469636b65747360b01b6044820152606401610648565b6000838152600a6020908152604080832033845282528083208390558583526012909152812080548392906116fc908490613092565b90915550506002820154600090611714908390612f6d565b6001840154909150611730906001600160a01b0316338361281f565b50505061173c60018055565b50565b61174761287e565b61175160006128ab565b565b61175b61287e565b6003805460ff1916911515919091179055565b61177661287e565b6001600160a01b03821661179c5760405162461bcd60e51b81526004016106489061306b565b6001600160a01b0382166000818152600e6020908152604091829020805460ff19168515159081179091558251938452908301527f9a8e30a8658b96ab3f034ce4bac6806278b4aee5880ccdd1ac35e4ed5bb31d23910161151a565b61180061287e565b6118086127f5565b6001600160a01b03821661182e5760405162461bcd60e51b81526004016106489061306b565b6000805b6002548110156118cf57600081815260086020526040902060018101546001600160a01b03868116911614801561187357506007810154610100900460ff16155b8015611883575060008160040154115b156118c65760008281526012602052604081205460048301546118a69190612f98565b90508082600201546118b89190612f6d565b6118c29085613092565b9350505b50600101611832565b506040516370a0823160e01b81523060048201526000906001600160a01b038516906370a0823190602401602060405180830381865afa158015611917573d6000803e3d6000fd5b505050506040513d601f19601f8201168201806040525081019061193b91906130ea565b9050600082821161194d576000611957565b6119578383612f98565b9050808411156119b55760405162461bcd60e51b815260206004820152602360248201527f416d6f756e74206578636565647320776974686472617761626c652062616c616044820152626e636560e81b6064820152608401610648565b6119db6119ca6000546001600160a01b031690565b6001600160a01b038716908661281f565b5050506119e760018055565b5050565b60008181526008602052604090206007810154610100900460ff1615611a235760405162461bcd60e51b815260040161064890612f06565b600781015462010000900460ff1615611a725760405162461bcd60e51b8152602060048201526011602482015270105b1c9958591e4818d85b98d95b1b1959607a1b6044820152606401610648565b6000816004015411611abd5760405162461bcd60e51b8152602060048201526014602482015273139bc81d1a58dad95d1cc81d1bc81c99599d5b9960621b6044820152606401610648565b6006810154611acf9062093a80613092565b421015611b165760405162461bcd60e51b815260206004820152601560248201527423b930b1b2903832b934b7b2103737ba1037bb32b960591b6044820152606401610648565b60078101805462ff00ff19166201000017905560405182907f4b065d94bb5f805836b9aefd08a7b4388cfdd8d346a56ef0a4a547dbca8b8f1f90610cde906020808252602c908201527f466f7263652d657870697265643a206e6f7420647261776e2077697468696e2060408201526b19dc9858d9481c195c9a5bd960a21b606082015260800190565b611ba861287e565b611bb06127f5565b6001600160a01b03831660009081526010602052604090205480611c0a5760405162461bcd60e51b815260206004820152601160248201527009cde40e6e8c2d6ca40e8de40e6d8c2e6d607b1b6044820152606401610648565b6001600160a01b038085166000908152601060209081526040808320839055600f9091529020805460ff19169055600354601154611c5292908116916101009004168361281f565b7f5eff6895ac13e81b5ec4cd6b6c41c2f76ba0f0a5f033f8c8ef29f034df80595584828585604051611c879493929190613103565b60405180910390a15061098760018055565b611ca16127f5565b336000908152600f602052604090205460ff16611cf15760405162461bcd60e51b815260206004820152600e60248201526d139bdd081c9959da5cdd195c995960921b6044820152606401610648565b33600090815260106020526040902054611d425760405162461bcd60e51b815260206004820152601260248201527127379039ba30b5b2903a37903932ba3ab93760711b6044820152606401610648565b60005b600254811015611e0b57600081815260086020526040902080546001600160a01b031633148015611d7a5750600781015460ff165b8015611d9057506007810154610100900460ff16155b8015611da75750600781015462010000900460ff16155b15611e025760405162461bcd60e51b815260206004820152602560248201527f43616e6e6f7420756e726567697374657220776974682061637469766520726160448201526466666c657360d81b6064820152608401610648565b50600101611d45565b50336000818152601060209081526040808320805490849055600f909252909120805460ff191690556011549091611e4d916001600160a01b0316908361281f565b60408051338152602081018390527ff845007464d17d6e6619e49c9891c03344bfe0fc4956e46c2a426b4a21a0a481910160405180910390a15061175160018055565b60076020526000908152604090208054600182018054919291611eb290612fab565b80601f0160208091040260200160405190810160405280929190818152602001828054611ede90612fab565b8015611f2b5780601f10611f0057610100808354040283529160200191611f2b565b820191906000526020600020905b815481529060010190602001808311611f0e57829003601f168201915b50505050600283015460039093015491929160ff16905084565b611f4d61287e565b6103e8611f5a8284613092565b1115611f9e5760405162461bcd60e51b815260206004820152601360248201527204665657320657863656564203130252063617606c1b6044820152606401610648565b6006805460009182611faf83613026565b91905055905060405180608001604052807f930f7599c7d87eae575db5b7fb4c39fe2e16e1298808ab9670643be351dfaa2c81526020018484604051602001612002929190918252602082015260400190565b60408051601f1981840301815291905281526020016120246202a30042613092565b815260016020918201819052600084815260078352604090208351815591830151908201906120539082613179565b50604082015160028201556060909101516003909101805460ff1916911515919091179055807fe61e87b49005c90ed58b9d98d0f1482fcbe12c829ab80259b67e6217119059e27f930f7599c7d87eae575db5b7fb4c39fe2e16e1298808ab9670643be351dfaa2c6120c86202a30042613092565b6040805192835260208301919091520160405180910390a2505050565b612171604051806101a0016040528060006001600160a01b0316815260200160006001600160a01b03168152602001600081526020016000815260200160008152602001600081526020016000815260200160001515815260200160001515815260200160001515815260200160006001600160a01b0316815260200160008152602001600081525090565b5060009081526008602081815260409283902083516101a08101855281546001600160a01b03908116825260018301548116938201939093526002820154948101949094526003810154606085015260048101546080850152600581015460a0850152600681015460c0850152600781015460ff808216151560e0870152610100808304821615159087015262010000820416151561012086015263010000009004909116610140840152908101546101608301526009015461018082015290565b61223b61287e565b6001600160a01b0381166122845760405162461bcd60e51b815260206004820152601060248201526f496e76616c696420747265617375727960801b6044820152606401610648565b600680546000918261229583613026565b91905055905060405180608001604052807f9f6f8058e4bcbf364e89c9e8da7eb7cada9d21b7aea6e2fd355b4669842c57958152602001836040516020016122ec91906001600160a01b0391909116815260200190565b60408051601f19818403018152919052815260200161230e6202a30042613092565b8152600160209182018190526000848152600783526040902083518155918301519082019061233d9082613179565b50604082015160028201556060909101516003909101805460ff1916911515919091179055807fe61e87b49005c90ed58b9d98d0f1482fcbe12c829ab80259b67e6217119059e27f9f6f8058e4bcbf364e89c9e8da7eb7cada9d21b7aea6e2fd355b4669842c57956123b26202a30042613092565b60408051928352602083019190915201610cde565b6123cf61287e565b6001600160a01b0381166123f957604051631e4fbdf760e01b815260006004820152602401610648565b61173c816128ab565b61240a6127f5565b6000828152600860205260409020600781015460ff166124605760405162461bcd60e51b8152602060048201526011602482015270526166666c65206e6f742061637469766560781b6044820152606401610648565b600781015462010000900460ff16156124ae5760405162461bcd60e51b815260206004820152601060248201526f149859999b194818d85b98d95b1b195960821b6044820152606401610648565b806006015442106124f05760405162461bcd60e51b815260206004820152600c60248201526b149859999b1948195b99195960a21b6044820152606401610648565b600082116125375760405162461bcd60e51b81526020600482015260146024820152734d75737420627579203e2030207469636b65747360601b6044820152606401610648565b60648211156125815760405162461bcd60e51b815260206004820152601660248201527509ac2f04062606040e8d2c6d6cae8e640e0cae440e8f60531b6044820152606401610648565b80600301548282600401546125969190613092565b11156125da5760405162461bcd60e51b815260206004820152601360248201527245786365656473206d6178207469636b65747360681b6044820152606401610648565b60008282600201546125ec9190612f6d565b600483015490915060005b8481101561264f57600086815260096020526040812033916126198486613092565b8152602081019190915260400160002080546001600160a01b0319166001600160a01b03929092169190911790556001016125f7565b50838360040160008282546126649190613092565b925050819055508183600901600082825461267f9190613092565b90915550506000858152600a60209081526040808320338452909152812080548692906126ad908490613092565b90915550506040805185815260208101849052339187917fef266bb11bf4b58aa8562ab8c8746e3b84a521780a2c57ca09d87bae13f5eb09910160405180910390a360018301546119db906001600160a01b03163330856128fb565b6127116127f5565b336000908152600f602052604090205460ff16156127665760405162461bcd60e51b8152602060048201526012602482015271105b1c9958591e481c9959da5cdd195c995960721b6044820152606401610648565b601154612786906001600160a01b03163330670de0b6b3a76400006128fb565b336000818152600f60209081526040808320805460ff191660011790556010825291829020670de0b6b3a7640000908190558251938452908301527f6f58a12b1f4848dd52e7b6c5edcbe8230a72672c5029213e72e493487da2f90f910160405180910390a161175160018055565b60026001540361281857604051633ee5aeb560e01b815260040160405180910390fd5b6002600155565b6040516001600160a01b0383811660248301526044820183905261098791859182169063a9059cbb906064015b604051602081830303815290604052915060e01b6020820180516001600160e01b03838183161783525050505061293a565b6000546001600160a01b031633146117515760405163118cdaa760e01b8152336004820152602401610648565b600080546001600160a01b038381166001600160a01b0319831681178455604051919092169283917f8be0079c531659141344cd1fd0a4f28419497f9722a3daafe3b4186f6b6457e09190a35050565b6040516001600160a01b0384811660248301528381166044830152606482018390526129349186918216906323b872dd9060840161284c565b50505050565b600061294f6001600160a01b0384168361299d565b905080516000141580156129745750808060200190518101906129729190613238565b155b1561098757604051635274afe760e01b81526001600160a01b0384166004820152602401610648565b60606129ab838360006129b2565b9392505050565b6060814710156129d75760405163cd78605960e01b8152306004820152602401610648565b600080856001600160a01b031684866040516129f39190613255565b60006040518083038185875af1925050503d8060008114612a30576040519150601f19603f3d011682016040523d82523d6000602084013e612a35565b606091505b5091509150612a45868383612a4f565b9695505050505050565b606082612a6457612a5f82612aab565b6129ab565b8151158015612a7b57506001600160a01b0384163b155b15612aa457604051639996b31560e01b81526001600160a01b0385166004820152602401610648565b50806129ab565b805115612abb5780518082602001fd5b604051630a12f52160e11b815260040160405180910390fd5b508054612ae090612fab565b6000825580601f10612af0575050565b601f01602090049060005260206000209081019061173c91905b80821115612b1e5760008155600101612b0a565b5090565b600080600060608486031215612b3757600080fd5b505081359360208301359350604090920135919050565b600060208284031215612b6057600080fd5b5035919050565b6001600160a01b038116811461173c57600080fd5b600060208284031215612b8e57600080fd5b81356129ab81612b67565b602080825282518282018190526000918401906040840190835b81811015612bd1578351835260209384019390920191600101612bb3565b509095945050505050565b60008060008060808587031215612bf257600080fd5b8435612bfd81612b67565b966020860135965060408601359560600135945092505050565b60008083601f840112612c2957600080fd5b50813567ffffffffffffffff811115612c4157600080fd5b602083019150836020828501011115612c5957600080fd5b9250929050565b600080600060408486031215612c7557600080fd5b83359250602084013567ffffffffffffffff811115612c9357600080fd5b612c9f86828701612c17565b9497909650939450505050565b801515811461173c57600080fd5b60008060408385031215612ccd57600080fd5b8235612cd881612b67565b91506020830135612ce881612cac565b809150509250929050565b60008060408385031215612d0657600080fd5b50508035926020909101359150565b600060208284031215612d2757600080fd5b81356129ab81612cac565b60008060408385031215612d4557600080fd5b8235612d5081612b67565b946020939093013593505050565b600080600060408486031215612d7357600080fd5b8335612d7e81612b67565b9250602084013567ffffffffffffffff811115612c9357600080fd5b60005b83811015612db5578181015183820152602001612d9d565b50506000910152565b8481526080602082015260008451806080840152612de38160a0850160208901612d9a565b604083019490945250901515606082015260a0601f909201601f1916010192915050565b81516001600160a01b031681526101a081016020830151612e3360208401826001600160a01b03169052565b5060408301516040830152606083015160608301526080830151608083015260a083015160a083015260c083015160c083015260e0830151612e7960e084018215159052565b50610100830151612e8f61010084018215159052565b50610120830151612ea561012084018215159052565b50610140830151612ec26101408401826001600160a01b03169052565b5061016083015161016083015261018083015161018083015292915050565b60008060408385031215612ef457600080fd5b823591506020830135612ce881612b67565b6020808252600d908201526c20b63932b0b23c90323930bbb760991b604082015260600190565b634e487b7160e01b600052601260045260246000fd5b600082612f5257612f52612f2d565b500690565b634e487b7160e01b600052601160045260246000fd5b808202811582820484141761160c5761160c612f57565b600082612f9357612f93612f2d565b500490565b8181038181111561160c5761160c612f57565b600181811c90821680612fbf57607f821691505b602082108103612fdf57634e487b7160e01b600052602260045260246000fd5b50919050565b60008060408385031215612ff857600080fd5b505080516020909101519092909150565b60006020828403121561301b57600080fd5b81516129ab81612b67565b60006001820161303857613038612f57565b5060010190565b634e487b7160e01b600052604160045260246000fd5b634e487b7160e01b600052603260045260246000fd5b6020808252600d908201526c24b73b30b634b2103a37b5b2b760991b604082015260600190565b8082018082111561160c5761160c612f57565b81835281816020850137506000828201602090810191909152601f909101601f19169091010190565b6020815260006130e26020830184866130a5565b949350505050565b6000602082840312156130fc57600080fd5b5051919050565b60018060a01b0385168152836020820152606060408201526000612a456060830184866130a5565b601f82111561098757806000526020600020601f840160051c810160208510156131525750805b601f840160051c820191505b81811015613172576000815560010161315e565b5050505050565b815167ffffffffffffffff8111156131935761319361303f565b6131a7816131a18454612fab565b8461312b565b6020601f8211600181146131db57600083156131c35750848201515b600019600385901b1c1916600184901b178455613172565b600084815260208120601f198516915b8281101561320b57878501518255602094850194600190920191016131eb565b50848210156132295786840151600019600387901b60f8161c191681555b50505050600190811b01905550565b60006020828403121561324a57600080fd5b81516129ab81612cac565b60008251613267818460208701612d9a565b919091019291505056fea2646970667358221220a2a84ecea5d90b614bdb7ab3842de65fe9c004506c9363cecbac8f365aef581964736f6c634300081e0033",
  "devdoc": {
    "errors": {
      "AddressEmptyCode(address)": [
        {
          "details": "There's no code at `target` (it is not a contract)."
        }
      ],
      "AddressInsufficientBalance(address)": [
        {
          "details": "The ETH balance of the account is not enough to perform the operation."
        }
      ],
      "FailedInnerCall()": [
        {
          "details": "A call to an address target failed. The target may have reverted."
        }
      ],
      "OwnableInvalidOwner(address)": [
        {
          "details": "The owner is not a valid owner account. (eg. `address(0)`)"
        }
      ],
      "OwnableUnauthorizedAccount(address)": [
        {
          "details": "The caller account is not authorized to perform an operation."
        }
      ],
      "ReentrancyGuardReentrantCall()": [
        {
          "details": "Unauthorized reentrant call."
        }
      ],
      "SafeERC20FailedOperation(address)": [
        {
          "details": "An operation with an ERC20 token failed."
        }
      ]
    },
    "kind": "dev",
    "methods": {
      "emergencyWithdraw(address,uint256)": {
        "details": "Cannot withdraw funds that belong to active/uncancelled raffles"
      },
      "forceExpireRaffle(uint256)": {
        "details": "Anyone can call this after endTime + 7 days grace period"
      },
      "owner()": {
        "details": "Returns the address of the current owner."
      },
      "renounceOwnership()": {
        "details": "Leaves the contract without owner. It will not be possible to call `onlyOwner` functions. Can only be called by the current owner. NOTE: Renouncing ownership will leave the contract without an owner, thereby disabling any functionality that is only available to the owner."
      },
      "transferOwnership(address)": {
        "details": "Transfers ownership of the contract to a new account (`newOwner`). Can only be called by the current owner."
      }
    },
    "version": 1
  },
  "userdoc": {
    "kind": "user",
    "methods": {
      "emergencyWithdraw(address,uint256)": {
        "notice": "Owner-only emergency withdraw for tokens stuck outside of active raffles"
      },
      "forceExpireRaffle(uint256)": {
        "notice": "Force-cancel an expired raffle that was never drawn, enabling refunds"
      },
      "registerAsOrganizer()": {
        "notice": "Stake 1 USDm to become an allowed organizer"
      },
      "slashOrganizer(address,string)": {
        "notice": "Owner can slash a bad organizer's stake (sent to treasury)"
      },
      "unregisterAsOrganizer()": {
        "notice": "Unregister and get stake back (only if no active raffles)"
      }
    },
    "version": 1
  },
  "storageLayout": {
    "storage": [
      {
        "astId": 8,
        "contract": "contracts/AgentRaffleV2.sol:AgentRaffleV2",
        "label": "_owner",
        "offset": 0,
        "slot": "0",
        "type": "t_address"
      },
      {
        "astId": 845,
        "contract": "contracts/AgentRaffleV2.sol:AgentRaffleV2",
        "label": "_status",
        "offset": 0,
        "slot": "1",
        "type": "t_uint256"
      },
      {
        "astId": 952,
        "contract": "contracts/AgentRaffleV2.sol:AgentRaffleV2",
        "label": "raffleCounter",
        "offset": 0,
        "slot": "2",
        "type": "t_uint256"
      },
      {
        "astId": 954,
        "contract": "contracts/AgentRaffleV2.sol:AgentRaffleV2",
        "label": "agentPaused",
        "offset": 0,
        "slot": "3",
        "type": "t_bool"
      },
      {
        "astId": 956,
        "contract": "contracts/AgentRaffleV2.sol:AgentRaffleV2",
        "label": "treasury",
        "offset": 1,
        "slot": "3",
        "type": "t_address"
      },
      {
        "astId": 959,
        "contract": "contracts/AgentRaffleV2.sol:AgentRaffleV2",
        "label": "platformFeeBps",
        "offset": 0,
        "slot": "4",
        "type": "t_uint256"
      },
      {
        "astId": 962,
        "contract": "contracts/AgentRaffleV2.sol:AgentRaffleV2",
        "label": "organizerFeeBps",
        "offset": 0,
        "slot": "5",
        "type": "t_uint256"
      },
      {
        "astId": 973,
        "contract": "contracts/AgentRaffleV2.sol:AgentRaffleV2",
        "label": "pendingChangeCount",
        "offset": 0,
        "slot": "6",
        "type": "t_uint256"
      },
      {
        "astId": 978,
        "contract": "contracts/AgentRaffleV2.sol:AgentRaffleV2",
        "label": "pendingChanges",
        "offset": 0,
        "slot": "7",
        "type": "t_mapping(t_uint256,t_struct(PendingChange)971_storage)"
      },
      {
        "astId": 983,
        "contract": "contracts/AgentRaffleV2.sol:AgentRaffleV2",
        "label": "raffles",
        "offset": 0,
        "slot": "8",
        "type": "t_mapping(t_uint256,t_struct(Raffle)944_storage)"
      },
      {
        "astId": 989,
        "contract": "contracts/AgentRaffleV2.sol:AgentRaffleV2",
        "label": "ticketOwners",
        "offset": 0,
        "slot": "9",
        "type": "t_mapping(t_uint256,t_mapping(t_uint256,t_address))"
      },
      {
        "astId": 995,
        "contract": "contracts/AgentRaffleV2.sol:AgentRaffleV2",
        "label": "participantTickets",
        "offset": 0,
        "slot": "10",
        "type": "t_mapping(t_uint256,t_mapping(t_address,t_uint256))"
      },
      {
        "astId": 999,
        "contract": "contracts/AgentRaffleV2.sol:AgentRaffleV2",
        "label": "vrfRequestIds",
        "offset": 0,
        "slot": "11",
        "type": "t_mapping(t_uint256,t_bytes32)"
      },
      {
        "astId": 1003,
        "contract": "contracts/AgentRaffleV2.sol:AgentRaffleV2",
        "label": "vrfRequested",
        "offset": 0,
        "slot": "12",
        "type": "t_mapping(t_uint256,t_bool)"
      },
      {
        "astId": 1007,
        "contract": "contracts/AgentRaffleV2.sol:AgentRaffleV2",
        "label": "vrfHashes",
        "offset": 0,
        "slot": "13",
        "type": "t_mapping(t_uint256,t_bytes32)"
      },
      {
        "astId": 1011,
        "contract": "contracts/AgentRaffleV2.sol:AgentRaffleV2",
        "label": "allowedTokens",
        "offset": 0,
        "slot": "14",
        "type": "t_mapping(t_address,t_bool)"
      },
      {
        "astId": 1015,
        "contract": "contracts/AgentRaffleV2.sol:AgentRaffleV2",
        "label": "allowedOrganizers",
        "offset": 0,
        "slot": "15",
        "type": "t_mapping(t_address,t_bool)"
      },
      {
        "astId": 1019,
        "contract": "contracts/AgentRaffleV2.sol:AgentRaffleV2",
        "label": "organizerStakes",
        "offset": 0,
        "slot": "16",
        "type": "t_mapping(t_address,t_uint256)"
      },
      {
        "astId": 1021,
        "contract": "contracts/AgentRaffleV2.sol:AgentRaffleV2",
        "label": "stakeToken",
        "offset": 0,
        "slot": "17",
        "type": "t_address"
      },
      {
        "astId": 1028,
        "contract": "contracts/AgentRaffleV2.sol:AgentRaffleV2",
        "label": "refundedTickets",
        "offset": 0,
        "slot": "18",
        "type": "t_mapping(t_uint256,t_uint256)"
      }
    ],
    "types": {
      "t_address": {
        "encoding": "inplace",
        "label": "address",
        "numberOfBytes": "20"
      },
      "t_bool": {
        "encoding": "inplace",
        "label": "bool",
        "numberOfBytes": "1"
      },
      "t_bytes32": {
        "encoding": "inplace",
        "label": "bytes32",
        "numberOfBytes": "32"
      },
      "t_bytes_storage": {
        "encoding": "bytes",
        "label": "bytes",
        "numberOfBytes": "32"
      },
      "t_mapping(t_address,t_bool)": {
        "encoding": "mapping",
        "key": "t_address",
        "label": "mapping(address => bool)",
        "numberOfBytes": "32",
        "value": "t_bool"
      },
      "t_mapping(t_address,t_uint256)": {
        "encoding": "mapping",
        "key": "t_address",
        "label": "mapping(address => uint256)",
        "numberOfBytes": "32",
        "value": "t_uint256"
      },
      "t_mapping(t_uint256,t_address)": {
        "encoding": "mapping",
        "key": "t_uint256",
        "label": "mapping(uint256 => address)",
        "numberOfBytes": "32",
        "value": "t_address"
      },
      "t_mapping(t_uint256,t_bool)": {
        "encoding": "mapping",
        "key": "t_uint256",
        "label": "mapping(uint256 => bool)",
        "numberOfBytes": "32",
        "value": "t_bool"
      },
      "t_mapping(t_uint256,t_bytes32)": {
        "encoding": "mapping",
        "key": "t_uint256",
        "label": "mapping(uint256 => bytes32)",
        "numberOfBytes": "32",
        "value": "t_bytes32"
      },
      "t_mapping(t_uint256,t_mapping(t_address,t_uint256))": {
        "encoding": "mapping",
        "key": "t_uint256",
        "label": "mapping(uint256 => mapping(address => uint256))",
        "numberOfBytes": "32",
        "value": "t_mapping(t_address,t_uint256)"
      },
      "t_mapping(t_uint256,t_mapping(t_uint256,t_address))": {
        "encoding": "mapping",
        "key": "t_uint256",
        "label": "mapping(uint256 => mapping(uint256 => address))",
        "numberOfBytes": "32",
        "value": "t_mapping(t_uint256,t_address)"
      },
      "t_mapping(t_uint256,t_struct(PendingChange)971_storage)": {
        "encoding": "mapping",
        "key": "t_uint256",
        "label": "mapping(uint256 => struct AgentRaffleV2.PendingChange)",
        "numberOfBytes": "32",
        "value": "t_struct(PendingChange)971_storage"
      },
      "t_mapping(t_uint256,t_struct(Raffle)944_storage)": {
        "encoding": "mapping",
        "key": "t_uint256",
        "label": "mapping(uint256 => struct AgentRaffleV2.Raffle)",
        "numberOfBytes": "32",
        "value": "t_struct(Raffle)944_storage"
      },
      "t_mapping(t_uint256,t_uint256)": {
        "encoding": "mapping",
        "key": "t_uint256",
        "label": "mapping(uint256 => uint256)",
        "numberOfBytes": "32",
        "value": "t_uint256"
      },
      "t_struct(PendingChange)971_storage": {
        "encoding": "inplace",
        "label": "struct AgentRaffleV2.PendingChange",
        "members": [
          {
            "astId": 964,
            "contract": "contracts/AgentRaffleV2.sol:AgentRaffleV2",
            "label": "changeType",
            "offset": 0,
            "slot": "0",
            "type": "t_bytes32"
          },
          {
            "astId": 966,
            "contract": "contracts/AgentRaffleV2.sol:AgentRaffleV2",
            "label": "data",
            "offset": 0,
            "slot": "1",
            "type": "t_bytes_storage"
          },
          {
            "astId": 968,
            "contract": "contracts/AgentRaffleV2.sol:AgentRaffleV2",
            "label": "executeAfter",
            "offset": 0,
            "slot": "2",
            "type": "t_uint256"
          },
          {
            "astId": 970,
            "contract": "contracts/AgentRaffleV2.sol:AgentRaffleV2",
            "label": "exists",
            "offset": 0,
            "slot": "3",
            "type": "t_bool"
          }
        ],
        "numberOfBytes": "128"
      },
      "t_struct(Raffle)944_storage": {
        "encoding": "inplace",
        "label": "struct AgentRaffleV2.Raffle",
        "members": [
          {
            "astId": 919,
            "contract": "contracts/AgentRaffleV2.sol:AgentRaffleV2",
            "label": "organizer",
            "offset": 0,
            "slot": "0",
            "type": "t_address"
          },
          {
            "astId": 921,
            "contract": "contracts/AgentRaffleV2.sol:AgentRaffleV2",
            "label": "paymentToken",
            "offset": 0,
            "slot": "1",
            "type": "t_address"
          },
          {
            "astId": 923,
            "contract": "contracts/AgentRaffleV2.sol:AgentRaffleV2",
            "label": "ticketPrice",
            "offset": 0,
            "slot": "2",
            "type": "t_uint256"
          },
          {
            "astId": 925,
            "contract": "contracts/AgentRaffleV2.sol:AgentRaffleV2",
            "label": "maxTickets",
            "offset": 0,
            "slot": "3",
            "type": "t_uint256"
          },
          {
            "astId": 927,
            "contract": "contracts/AgentRaffleV2.sol:AgentRaffleV2",
            "label": "totalTickets",
            "offset": 0,
            "slot": "4",
            "type": "t_uint256"
          },
          {
            "astId": 929,
            "contract": "contracts/AgentRaffleV2.sol:AgentRaffleV2",
            "label": "startTime",
            "offset": 0,
            "slot": "5",
            "type": "t_uint256"
          },
          {
            "astId": 931,
            "contract": "contracts/AgentRaffleV2.sol:AgentRaffleV2",
            "label": "endTime",
            "offset": 0,
            "slot": "6",
            "type": "t_uint256"
          },
          {
            "astId": 933,
            "contract": "contracts/AgentRaffleV2.sol:AgentRaffleV2",
            "label": "isActive",
            "offset": 0,
            "slot": "7",
            "type": "t_bool"
          },
          {
            "astId": 935,
            "contract": "contracts/AgentRaffleV2.sol:AgentRaffleV2",
            "label": "isDrawn",
            "offset": 1,
            "slot": "7",
            "type": "t_bool"
          },
          {
            "astId": 937,
            "contract": "contracts/AgentRaffleV2.sol:AgentRaffleV2",
            "label": "isCancelled",
            "offset": 2,
            "slot": "7",
            "type": "t_bool"
          },
          {
            "astId": 939,
            "contract": "contracts/AgentRaffleV2.sol:AgentRaffleV2",
            "label": "winner",
            "offset": 3,
            "slot": "7",
            "type": "t_address"
          },
          {
            "astId": 941,
            "contract": "contracts/AgentRaffleV2.sol:AgentRaffleV2",
            "label": "winningTicket",
            "offset": 0,
            "slot": "8",
            "type": "t_uint256"
          },
          {
            "astId": 943,
            "contract": "contracts/AgentRaffleV2.sol:AgentRaffleV2",
            "label": "totalPrize",
            "offset": 0,
            "slot": "9",
            "type": "t_uint256"
          }
        ],
        "numberOfBytes": "320"
      },
      "t_uint256": {
        "encoding": "inplace",
        "label": "uint256",
        "numberOfBytes": "32"
      }
    }
  }
}